:020000040800F2
:100000000000082485120008610F0008690F00082D
:10001000710F0008790F0008810F00080000000030
:10002000000000000000000000000000C1D7000830
:10003000890F00080000000011DA00089DB20008D6
:10004000D9120008D9120008D9120008D9120008E4
:10005000D9120008D9120008D9120008D9120008D4
:10006000D9120008D9120008D9120008D9120008C4
:10007000D9120008D9120008D9120008D9120008B4
:10008000D9120008D9120008D9120008D9120008A4
:10009000D9120008D9120008D9120008D912000894
:1000A000D9120008D9120008D9120008D912000884
:1000B000D9120008D9120008D9120008D912000874
:1000C000D9120008D9120008D9120008D912000864
:1000D000D9120008D9120008D9120008D912000854
:1000E000D9120008D912000800000000D912000837
:1000F000D9120008D9120008D9120008D912000834
:10010000D9120008D9120008D9120008D912000823
:10011000D9120008D9120008990F0008D912000856
:10012000D9120008D9120008D9120008D912000803
:10013000D9120008D9120008D9120008D9120008F3
:1001400000000000000000000000000000000000AF
:10015000D9120008D9120008D9120008D9120008D3
:10016000D9120008D9120008D9120008D9120008C3
:10017000D9120008D9120008D912000800000000A6
:10018000D9120008D9120008D9120008D9120008A3
:10019000D9120008D9120008D9120008D912000893
:1001A000D9120008D9120008D9120008D912000883
:1001B000D9120008D9120008D9120008D912000873
:1001C000D9120008D9120008D9120008D912000863
:1001D000D9120008AD0F0008D9120008D912000882
:1001E000D9120008D9120008D9120008D912000843
:1001F000D9120008D9120008D9120008D912000833
:10020000D9120008D9120008D9120008D912000822
:10021000D9120008D9120008D9120008D912000812
:10022000D9120008D9120008D912000800000000F5
:10023000D9120008D912000800000000D9120008E5
:10024000D9120008D9120008D9120008D9120008E2
:10025000D9120008D9120008D9120008D9120008D2
:10026000D9120008D9120008D9120008D9120008C2
:10027000D9120008D9120008D912000800000000A5
:10028000D9120008D9120008D91200080000000095
:0802900000000000D912000873
:1002A00010B5054C237833B9044B13B10448AFF3B0
:1002B00000800123237010BDD00200240000000044
:1002C0003435010808B5034B1BB103490348AFF3AC
:1002D000008008BD00000000D4020024343501086D
:1002E00001F0FF01102A2BDB10F0070F08D010F8E7
:1002F000013B013A8B422DD010F0070F42B3F6D1EB
:10030000F0B441EA012141EA014122F007047FF003
:1003100000070023F0E80256083C85EA010586EA5A
:10032000010685FA47F5A3FA87F586FA47F6A5FA96
:1003300087F68EB9EED1F0BC01F0FF0102F00702A2
:1003400032B110F8013B013A83EA010313B1F8D14D
:100350000020704701387047002D06BF354603382E
:10036000073815F0010F07D1013015F4807F02BF67
:10037000013015F4C03F0130F0BC0138704700BFB8
:10038000034613F8012B002AFBD1181A01387047D5
:1003900081F0004102E000BF83F0004330B54FEA36
:1003A00041044FEA430594EA050F08BF90EA020FA3
:1003B0001FBF54EA000C55EA020C7FEA645C7FEA36
:1003C000655C00F0E2804FEA5454D4EB5555B8BF59
:1003D0006D420CDD2C4480EA020281EA030382EACA
:1003E000000083EA010180EA020281EA0303362D5C
:1003F00088BF30BD11F0004F4FEA01314FF4801C2F
:100400004CEA113102D0404261EB410113F0004F40
:100410004FEA03334CEA133302D0524263EB4303F7
:1004200094EA050F00F0A780A4F10104D5F1200E95
:100430000DDB02FA0EFC22FA05F2801841F10001F0
:1004400003FA0EF2801843FA05F359410EE0A5F1C4
:1004500020050EF1200E012A03FA0EFC28BF4CF0F5
:10046000020C43FA05F3C01851EBE37101F00045AB
:1004700007D54FF0000EDCF1000C7EEB00006EEBB8
:100480000101B1F5801F1BD3B1F5001F0CD3490842
:100490005FEA30004FEA3C0C04F101044FEA445299
:1004A00012F5800F80F09A80BCF1004F08BF5FEA20
:1004B000500C50F1000041EB045141EA050130BD00
:1004C0005FEA4C0C404141EB0101013C28BFB1F512
:1004D000801FE9D291F0000F04BF01460020B1FA5D
:1004E00081F308BF2033A3F10B03B3F120020CDA30
:1004F0000C3208DD02F1140CC2F10C0201FA0CF00E
:1005000021FA02F10CE002F11402D8BFC2F1200C72
:1005100001FA02F120FA0CFCDCBF41EA0C01904028
:10052000E41AA2BF01EB0451294330BD6FEA040471
:100530001F3C1CDA0C340EDC04F11404C4F120025C
:1005400020FA04F001FA02F340EA030021FA04F36E
:1005500045EA030130BDC4F10C04C4F1200220FAC5
:1005600002F001FA04F340EA0300294630BD21FA03
:1005700004F0294630BD94F0000F83F4801306BFC9
:1005800081F480110134013D4EE77FEA645C18BFBD
:100590007FEA655C29D094EA050F08BF90EA020F54
:1005A00005D054EA000C04BF1946104630BD91EA4C
:1005B000030F1EBF0021002030BD5FEA545C05D14F
:1005C0004000494128BF41F0004130BD14F580048E
:1005D0003CBF01F5801130BD01F0004545F0FE4102
:1005E00041F470014FF0000030BD7FEA645C1ABF37
:1005F000194610467FEA655C1CBF0B46024650EA6E
:10060000013406BF52EA033591EA030F41F4002199
:1006100030BD00BF90F0000F04BF0021704730B51F
:100620004FF4806404F132044FF000054FF00001F4
:1006300050E700BF90F0000F04BF0021704730B5B5
:100640004FF4806404F1320410F0004548BF40428A
:100650004FF000013EE700BF42004FEAE2014FEADF
:1006600031014FEA02701FBF12F07F4393F07F4FBA
:1006700081F06051704732F07F4208BF704793F0BD
:100680007F4F04BF41F40021704730B54FF46074D0
:1006900001F0004521F000411CE700BF50EA0102D3
:1006A00008BF704730B54FF000050AE050EA01027C
:1006B00008BF704730B511F0004502D5404261EBEC
:1006C00041014FF4806404F132045FEA915C3FF42D
:1006D000D8AE4FF003025FEADC0C18BF03325FEACA
:1006E000DC0C18BF033202EBDC02C2F1200300FA7B
:1006F00003FC20FA02F001FA03FE40EA0E0021FAA0
:1007000002F11444BDE600BF08B502460B4643ECB7
:10071000172BB5EEC07BF1EE10FA03D4BDE808400C
:1007200000F00AB8B1EE477B51EC170B00F004F86B
:10073000404261EB410108BD9FED0B6B41EC170B93
:100740009FED0B5B27EE066BBCEEC66BB8EE464B1F
:10075000A4EE457BFCEEC77B16EE101A17EE900A4E
:10076000704700BFAFF30080000000000000F03DC4
:10077000000000000000F04180B500AF0C4A0021ED
:100780000C480AF004FE03460B4A13600B4A002192
:100790000B480AF0FCFD03460A4A13600A4A00218E
:1007A0000A480AF0F4FD0346094A136000BF80BD01
:1007B00084360108D507000834030024A836010850
:1007C000E907000838030024CC3601080D090008A9
:1007D0003C03002480B582B000AF78600DF0CCFB04
:1007E00001200AF067FEFBE780B58AB004AF7860AD
:1007F0004FF4FA700AF05EFE394808F089FB08F001
:100800009DFC384BD3ED007AB7EEE75A364BD3ED6B
:10081000007AB7EEE77A354BD3ED006AB7EEE66AB9
:100820008DED026B8DED007B53EC152B30480FF0F6
:1008300095FA9FED300A304807F0B6FF0AF092FDB6
:1008400078610A233B612D4BFB602D4808F0A2FB29
:100850002B4BD3ED067A2A4B93ED077A284BD3ED39
:10086000086A274B93ED036A254BD3ED045A244BBA
:1008700093ED055A97ED033AF0EE452AB0EE652A5E
:10088000F0EE461AB0EE661AF0EE470AB0EE670ACE
:10089000194807F0A9FF184BD3ED057AB7EEE75AD0
:1008A000154BD3ED067AB7EEE77A134BD3ED076A13
:1008B000B7EEE66A8DED026B8DED007B53EC152BE8
:1008C00010480FF04BFA10210F4801F0CAF87A696E
:1008D0003B6913447B6178690AF007FE00BFB4E707
:1008E00040030024200400242404002428040024BD
:1008F0007C350108CDCCCC3D140300240AD7233C21
:10090000EC0200249C3501080010025880B582B02A
:1009100000AF786001200AF0CDFDFBE780B58AB01A
:1009200000AF07F1140300221A605A609A60DA607F
:100930001A61524BD3F8E030504A43F01003C2F82A
:10094000E0304E4BD3F8E03003F010033B613B69DD
:100950004A4BD3F8E030494A43F08003C2F8E03014
:10096000464BD3F8E03003F08003FB60FB68434B59
:10097000D3F8E030414A43F00403C2F8E0303F4B83
:10098000D3F8E03003F00403BB60BB683B4BD3F803
:10099000E0303A4A43F00103C2F8E030374BD3F875
:1009A000E03003F001037B607B68344BD3F8E03028
:1009B000324A43F00203C2F8E030304BD3F8E03063
:1009C00003F002033B603B6800224FF401612C48B6
:1009D00001F02EF8002224212A4801F029F80022F3
:1009E0001021294801F024F800224FF40061274823
:1009F00001F01EF84FF401637B610123BB6100230A
:100A0000FB6100233B6207F1140319461C4800F008
:100A10005FFE24237B610123BB610023FB61002374
:100A20003B6207F114031946164800F051FE1023EB
:100A30007B610123BB610023FB6100233B6207F163
:100A400014031946104800F043FE4FF400637B6125
:100A50000123BB610023FB6100233B6207F1140308
:100A600019460A4800F034FE00214FF0806000F083
:100A7000C1FC00BF2837BD4680BD00BF00440258FE
:100A800000100258000802580000025800040258E2
:100A900080B500AF00F0D5F800F020FC00F02AF897
:100AA000FFF73CFF00F012F9012204210E4800F08C
:100AB000BFFF012220210C4800F0BAFF01221021C3
:100AC0000A4800F0B5FF01224FF40061084800F029
:100AD000AFFF642000F05EFC0AF0FAFBFFF74CFE6B
:100AE0000AF01AFC00BFFDE7000802580000025897
:100AF0000010025880B59CB000AF07F124034C22CF
:100B0000002118460FF094FA3B1D202200211846C0
:100B10000FF08EFA022002F05FFA00233B60324BA6
:100B20009B69314A43F4404393612F4B9B6903F423
:100B300040433B602D4BDB6A2C4A43F00103D362F8
:100B40002A4BDB6A03F001033B603B6800BF264B86
:100B50009B6903F40053B3F5005FF8D122237B6255
:100B600001233B6340237B630123FB630223BB64BC
:100B70000023FB6404233B653C237B650223BB65A8
:100B80000223FB6502233B660C237B660023BB66C6
:100B90000023FB6607F12403184602F067FA0346B8
:100BA000002B01D000F08CF83F237B600323BB6057
:100BB0000023FB6008233B6140237B614023BB6132
:100BC0004FF48063FB6140233B623B1D04211846C8
:100BD00002F0A6FE0346002B01D000F071F800BF22
:100BE0007037BD4680BD00BF004802580004005861
:100BF00080B586B000AFF860B9607A607B689BB260
:100C00001946B8680DF078FA0346FB7564233B611A
:100C10000AE07B689BB21946B8680DF06DFA03468E
:100C2000FB7501200AF046FCFB7D012B04D13B69DA
:100C30005A1E3A61002BECD17B6818461837BD4626
:100C400080BD80B584B000AF3B4600221A605A6078
:100C50009A60DA6000F0C4FC01233B7000237B70D3
:100C600000237B601F233B7287237B720023BB72B0
:100C70000023FB7201233B7301237B730023BB73AF
:100C80000023FB733B46184600F0E2FC042000F012
:100C9000BFFC00BF1037BD4680BD000080B582B0EC
:100CA00000AF78607B681B68044A934201D100F072
:100CB00051FB00BF0837BD4680BD00BF001000409B
:100CC00080B400AF72B600BF00BFFDE780B500AFD3
:100CD000284B294A1A60274B4FF480025A60254B53
:100CE00000229A60234B0722DA60224B4FF00072F9
:100CF0001A61204B4FF080725A611E4B4FF0806298
:100D00009A611C4B4FF00052DA611A4B00221A62B2
:100D1000184B00225A62174B00229A62154B002290
:100D2000DA62144B00225A63124B00229A63114B71
:100D30000022DA630F4B00221A640E4B00225A6421
:100D40000C4B00229A640B4B0022DA64094B002200
:100D50001A65084B00225A65064B00229A65054821
:100D600004F004FD0346002B01D0FFF7A9FF00BFEC
:100D700080BD00BF400300240034014080B5BAB0FC
:100D800000AF786007F1D40300221A605A609A60BD
:100D9000DA601A6107F11003C022002118460FF033
:100DA00047F97B681B68264A934245D14FF40052AD
:100DB0004FF00003C7E9042300237B6707F110030A
:100DC000184603F065F90346002B01D0FFF778FFC2
:100DD0001C4BD3F8F0301B4A43F40053C2F8F030F8
:100DE000184BD3F8F03003F40053FB60FB68154B4D
:100DF000D3F8E030134A43F01003C2F8E030114B4F
:100E0000D3F8E03003F01003BB60BB684FF4E0435D
:100E1000C7F8D4300223C7F8D8300023C7F8DC3035
:100E20000023C7F8E0300523C7F8E43007F1D40306
:100E30001946054800F04CFC00BFE837BD4680BDB0
:100E400000340140004402580010025880B582B0BE
:100E500000AF0C4BD3F8F4300A4A43F00203C2F857
:100E6000F430084BD3F8F43003F002037B607B6866
:100E700000220F216FF0010000F08AFB00BF08374D
:100E8000BD4680BD0044025880B590B000AF786088
:100E90007B680F2B27D800227968362000F078FB7A
:100EA000362000F08FFB294A7B681360284BD3F86B
:100EB000E830274A43F01003C2F8E830244BD3F857
:100EC000E83003F01003FB60FB6807F1100207F144
:100ED00014031146184603F099F8BB6ABB63BB6B59
:100EE000002B06D101E001232BE003F079F8F86331
:100EF00004E003F075F803465B00FB63FB6B154AE7
:100F0000A2FB03239B0C013B7B63134B134A1A6028
:100F1000114B40F2E732DA600F4A7B6B53600E4BA5
:100F200000221A610C4B00229A600B4805F0C5FDA7
:100F30000346002B04D1084805F020FE034600E0DC
:100F4000012318464037BD4680BD00BF080000247D
:100F50000044025883DE1B43C803002400100040F5
:100F600080B400AF00BFFDE780B400AF00BFFDE775
:100F700080B400AF00BFFDE780B400AF00BFFDE765
:100F800080B400AF00BFFDE780B400AF00BFBD4636
:100F90005DF8047B7047000080B500AF024805F0A3
:100FA00065FE00BF80BD00BFC803002480B500AF50
:100FB000024800F0B1FE00BF80BD00BF5C2C0124E0
:100FC00080B400AF01231846BD465DF8047B70472E
:100FD00080B582B000AF786039600FF07BF80346CF
:100FE00016221A604FF0FF3318460837BD4680BD01
:100FF00080B582B000AF78604FF0FF317868FFF7BE
:10100000E7FF00BFFDE780B586B000AFF860B960CC
:101010007A6000237B610AE0AFF300800146BB6881
:101020005A1CBA60CAB21A707B6901337B617A6953
:101030007B689A42F0DB7B6818461837BD4680BD56
:1010400080B483B000AF78604FF0FF3318460C37A0
:10105000BD465DF8047B704780B483B000AF786014
:1010600039603B684FF400525A60002318460C3731
:10107000BD465DF8047B704780B483B000AF7860F4
:10108000012318460C37BD465DF8047B704780B4D9
:1010900085B000AFF860B9607A6000231846143755
:1010A000BD465DF8047B704780B586B000AF7860C0
:1010B000144A154BD31A7B617B693B61134B1B6848
:1010C000002B02D1114B124A1A60104B1A687B6830
:1010D00013443A699A4207D20EF0FCFF03460C22F1
:1010E0001A604FF0FF3309E0084B1B68FB60074BA9
:1010F0001A687B681344054A1360FB681846183762
:10110000BD4680BD00000824000400001404002433
:10111000B034012480B400AF434BD3F88830424A46
:1011200043F47003C2F88830404B1B6803F00F0390
:10113000062B07D83D4B1B6823F00F033B4A43F0B7
:10114000070313603A4B1B68394A43F001031360ED
:10115000374B00221A61364B1A683549354B13401C
:101160000B60324B1B6803F00803002B07D02F4B9A
:101170001B6823F00F032D4A43F0070313602C4B29
:1011800000229A612A4B0022DA61294B00221A625E
:10119000274B294A9A62264B284ADA62244B284A6E
:1011A0001A63234B00225A63214B254A9A63204B32
:1011B0000022DA631E4B224A1A641D4B00225A6435
:1011C0001B4B1B681A4A23F480231360184B002220
:1011D0001A661C4B1A681C4B1340B3F1005F02D215
:1011E0001A4B01221A60124BD3F8D43003F4805307
:1011F000002B13D10E4BD3F8D4300D4A43F4805357
:10120000C2F8D430124B43F2D2021A60084BD3F822
:10121000D430074A23F48053C2F8D43000BFBD460F
:101220005DF8047B704700BF00ED00E00020005235
:10123000004402587FEDF6EA000202020000FF01BE
:10124000800201010010005C0000FFFF08810051D6
:101250000040005280B400AF094BDB68084A43F0FD
:101260000203D36000BF064B5B6803F40053002BFE
:10127000F9D000BF00BFBD465DF8047B704700BFDA
:1012800000480258DFF838D0FFF7E4FFFFF742FFCD
:101290000C480D490D4A002302E0D458C4500433D1
:1012A000C4188C42F9D30A4A0A4C002301E01360A7
:1012B0000432A242FBD30EF013FFFFF7E9FB7047A5
:1012C0000000082400000024D0020024743B010820
:1012D000D0020024AC340124FEE7000080B582B0C7
:1012E00000AF032000F049F902F0D0FC0246154B94
:1012F0009B691B0A03F00F031349CB5C03F01F0328
:1013000022FA03F37B600F4B9B6903F00F030E4A35
:10131000D35C03F01F037A6822FA03F30B4A1360CD
:101320000B4A7B6813600F20FFF7AEFD0346002BCE
:1013300001D0012302E0FFF789FD0023184608379A
:10134000BD4680BD00440258F03601080400002468
:101350000000002480B400AF064B1B781A46064BF1
:101360001B681344044A136000BFBD465DF8047B4C
:10137000704700BF0C0000241804002480B400AFA4
:10138000034B1B681846BD465DF8047B704700BFE1
:101390001804002480B584B000AF7860FFF7EEFF3A
:1013A000B8607B68FB60FB68B3F1FF3F05D00A4B78
:1013B0001B781A46FB681344FB6000BFFFF7DEFF93
:1013C0000246BB68D31AFA689A42F7D800BF00BF3A
:1013D0001037BD4680BD00BF0C00002480B400AFB4
:1013E000034B1B681B0C1846BD465DF8047B704719
:1013F0000010005C80B483B000AF78603960074BA8
:101400005A687B68DB431A4004493B6813434B60CE
:1014100000BF0C37BD465DF8047B704700040058E0
:1014200080B485B000AF78607B6803F00703FB6091
:101430000B4BDB68BB60BA684FF6FF031340BB6021
:10144000FB681A02BB681A43064B1343BB60044A8D
:10145000BB68D36000BF1437BD465DF8047B70479E
:1014600000ED00E00000FA0580B400AF044BDB683B
:101470001B0A03F007031846BD465DF8047B70475E
:1014800000ED00E080B483B000AF0346FB80B7F905
:101490000630002B0BDBFB8803F01F020749B7F96E
:1014A00006305B09012000FA02F241F8232000BF58
:1014B0000C37BD465DF8047B704700BF00E100E0DB
:1014C00080B483B000AF03463960FB80B7F90630C3
:1014D000002B0ADB3B68DAB20C49B7F9063012017F
:1014E000D2B20B4483F800230AE03B68DAB2084921
:1014F000FB8803F00F03043B1201D2B20B441A76AF
:1015000000BF0C37BD465DF8047B704700E100E08A
:1015100000ED00E080B489B000AFF860B9607A6097
:10152000FB6803F00703FB61FB69C3F10703042BAE
:1015300028BF0423BB61FB690433062B02D9FB6976
:10154000033B00E000237B614FF0FF32BB6902FAEE
:1015500003F3DA43BB681A407B699A404FF0FF31CE
:101560007B6901FA03F3D9437B680B4013431846A8
:101570002437BD465DF8047B704780B582B000AF6C
:1015800078607868FFF74CFF00BF0837BD4680BD24
:1015900080B586B000AF0346B9607A60FB81FFF783
:1015A00063FF78617A68B9687869FFF7B3FF02462C
:1015B000B7F90E3011461846FFF782FF00BF183703
:1015C000BD4680BD80B582B000AF0346FB80B7F951
:1015D00006301846FFF756FF00BF0837BD4680BDEE
:1015E00080B400AFBFF35F8F00BF074B5B6A064A52
:1015F00023F480335362054B00225A6000BFBD467E
:101600005DF8047B704700BF00ED00E090ED00E066
:1016100080B483B000AF78600B4A7B6843F001036D
:1016200053600A4B5B6A094A43F480335362BFF349
:101630004F8F00BFBFF36F8F00BF00BF0C37BD4699
:101640005DF8047B704700BF90ED00E000ED00E026
:1016500080B483B000AF78607B685A781B4B9A6087
:101660001A4B1B69194A23F001031361174A7B685F
:101670005B68D3607B681B7B1A077B68DB7A1B0681
:101680001A437B689B7ADB041A437B685B7B9B0471
:101690001A437B689B7B5B041A437B68DB7B1B04E0
:1016A0001A437B685B7A1B021A437B681B7A5B00D8
:1016B00013437A6812781146044A0B43136100BF42
:1016C0000C37BD465DF8047B704700BF90ED00E02D
:1016D00080B489B000AF786039600023FB61894B2A
:1016E0007B6194E13B681A680121FB6901FA03F30D
:1016F00013403B613B69002B00F086813B685B68CF
:1017000003F00303012B05D03B685B6803F0030380
:10171000022B30D17B689B68BB61FB695B000322B5
:1017200002FA03F3DB43BA691340BB613B68DA6832
:10173000FB695B0002FA03F3BA691343BB617B6880
:10174000BA699A607B685B68BB610122FB6902FA37
:1017500003F3DB43BA691340BB613B685B681B0959
:1017600003F00102FB6902FA03F3BA691343BB6198
:101770007B68BA695A603B685B6803F00303032B1C
:1017800017D07B68DB68BB61FB695B00032202FA50
:1017900003F3DB43BA691340BB613B689A68FB699A
:1017A0005B0002FA03F3BA691343BB617B68BA6951
:1017B000DA603B685B6803F00303022B23D1FB690B
:1017C000DA087B68083253F82230BB61FB6903F00A
:1017D00007039B000F2202FA03F3DB43BA691340AD
:1017E000BB613B681A69FB6903F007039B0002FABF
:1017F00003F3BA691343BB61FB69DA087B680832FB
:10180000B96943F822107B681B68BB61FB695B0008
:10181000032202FA03F3DB43BA691340BB613B685E
:101820005B6803F00302FB695B0002FA03F3BA6929
:101830001343BB617B68BA691A603B685B6803F459
:101840004033002B00F0E0802F4BD3F8F4302E4AC9
:1018500043F00203C2F8F4302B4BD3F8F43003F01A
:101860000203FB60FB68294AFB699B08023352F8BC
:101870002330BB61FB6903F003039B000F2202FAD4
:1018800003F3DB43BA691340BB617B68204A934290
:1018900052D07B681F4A934231D07B681E4A9342E4
:1018A0002BD07B681D4A934225D07B681C4A93420B
:1018B0001FD07B681B4A934219D07B681A4A934217
:1018C00013D07B68194A93420DD07B68184A934223
:1018D00007D07B68174A934201D109232DE00A23E0
:1018E0002BE0082329E0072327E0062325E0052332
:1018F00023E0042321E003231FE002231DE0012352
:101900001BE000BF8000005800440258000400584B
:10191000000002580004025800080258000C025847
:10192000001002580014025800180258001C0258F7
:1019300000200258002402580023FA6902F0030232
:1019400092009340BA691343BB613849FB699B0815
:101950000233BA6941F823204FF0B0431B68BB61E2
:101960003B69DB43BA691340BB613B685B6803F4C6
:101970008013002B03D0BA693B691343BB614FF05E
:10198000B042BB6913604FF0B0435B68BB613B6919
:10199000DB43BA691340BB613B685B6803F4001327
:1019A000002B03D0BA693B691343BB614FF0B042CF
:1019B000BB6953607B695B68BB613B69DB43BA69A8
:1019C0001340BB613B685B6803F40033002B03D01A
:1019D000BA693B691343BB617B69BA695A607B6929
:1019E0001B68BB613B69DB43BA691340BB613B6861
:1019F0005B6803F48033002B03D0BA693B6913435F
:101A0000BB617B69BA691A60FB690133FB613B68A2
:101A10001A68FB6922FA03F3002B7FF463AE00BF60
:101A200000BF2437BD465DF8047B704700040058B2
:101A300080B483B000AF78600B467B8013467B7028
:101A40007B78002B03D07A887B689A6103E07B88DF
:101A50001A047B689A6100BF0C37BD465DF8047BB1
:101A6000704780B485B000AF78600B467B807B68A0
:101A70005B69FB607A88FB6813401A04FB68D943F2
:101A80007B880B401A437B689A6100BF1437BD46C0
:101A90005DF8047B704780B586B002AF78607B68E4
:101AA000002B01D10123FEE07B6893F89534DBB273
:101AB000002B06D17B68002283F8942478680CF010
:101AC00063FC7B68032283F895247B681B681846B7
:101AD00005F0DFFB7B6818687B681A7C8DF80020B6
:101AE00004330ECB05F0B0FA0346002B05D07B681B
:101AF000022283F895240123D5E07B681B6800212E
:101B0000184605F0D7FB0346002B05D07B68022260
:101B100083F895240123C6E00023FB734AE0FA7B97
:101B200079681346DB0013449B000B4415330122F4
:101B30001A70FA7B79681346DB0013449B000B4450
:101B40001433FA7B1A70FA7BFB7B98B279681346E0
:101B5000DB0013449B000B442E3302461A80FA7BB1
:101B600079681346DB0013449B000B4418330022B2
:101B70001A70FA7B79681346DB0013449B000B4410
:101B80001C3300221A60FA7B79681346DB00134489
:101B90009B000B44203300221A60FA7B79681346BD
:101BA000DB0013449B000B44243300221A60FB7BB0
:101BB0000133FB737B681B79FA7B9A42AFD3002316
:101BC000FB7344E0FA7B79681346DB0013449B0007
:101BD0000B4403F2552300221A70FA7B79681346EE
:101BE000DB0013449B000B4403F51573FA7B1A705A
:101BF000FA7B79681346DB0013449B000B4403F522
:101C0000167300221A70FA7B79681346DB001344BE
:101C10009B000B4403F5177300221A60FA7B796866
:101C20001346DB0013449B000B4403F5187300229A
:101C30001A60FA7B79681346DB0013449B000B445F
:101C400003F5197300221A60FB7B0133FB737B6879
:101C50001B79FA7B9A42B5D37B6818687B681A7C3B
:101C60008DF8002004330ECB05F070FB0346002BEB
:101C700005D07B68022283F89524012313E07B685A
:101C800000225A747B68012283F895247B681B7BB1
:101C9000012B02D1786801F06FF97B681B68184648
:101CA00006F0B3FB002318461037BD4680BD80B553
:101CB00084B000AF78607B681B68FB607B6893F83A
:101CC0009434012B01D1022322E07B68012283F8A6
:101CD0009424FB68DB6803F04003002B09D07B6889
:101CE0005B7B012B05D1FB689B6B43F48032FB6867
:101CF0009A637B681B68184605F0BAFA7B681B6814
:101D0000184606F061FB7B68002283F894240023C8
:101D100018461037BD4680BD90B58DB000AF7860D5
:101D20007B681B683B623B6AFB617B681B681846EB
:101D300006F01FFC0346002B40F0B9847B681B684B
:101D4000184606F083FB0346002B00F0AF84FB69C6
:101D500003F500639B681B0AC3F30D027B68C3F89D
:101D6000D4247B681B68184606F070FB034603F01A
:101D70000203022B07D17B681B685A697B681B68CA
:101D800002F002025A617B681B68184606F05EFB8F
:101D9000034603F01003102B61D17B681B689A691E
:101DA0007B681B6822F010029A613B6A1B6ABB6168
:101DB000BB6903F00F021346DB0013449B0003F5DD
:101DC00014737A68134404337B61BB6903F4F01322
:101DD000B3F5802F24D1BA6947F6F0731340002B76
:101DE00035D07B69D968BB691B099BB2C3F30A0371
:101DF0009BB21A46386A06F095F97B69DA68BB69C6
:101E00001B09C3F30A031A447B69DA607B695A69C8
:101E1000BB691B09C3F30A031A447B695A6116E0C4
:101E2000BB6903F4F013B3F5402F10D17B6803F2C4
:101E30009C4308221946386A06F074F97B695A698E
:101E4000BB691B09C3F30A031A447B695A617B68A7
:101E50001B689A697B681B6842F010029A617B6874
:101E60001B68184606F0F2FA034603F40023B3F5A4
:101E7000002F40F0A78000237B627B681B68184618
:101E800006F0F7FAB86299E0BB6A03F00103002B91
:101E900000F08E807B681B687A6AD2B211461846C1
:101EA00006F01BFB38613B6903F00103002B0CD0EB
:101EB0007B6A5A01FB69134403F530631A46012318
:101EC0009360796A786800F0D1FE3B6903F00803FB
:101ED000002B0CD07B6A5A01FB69134403F5306375
:101EE0001A4608239360796A786800F0A7FF3B6977
:101EF00003F01003002B08D07B6A5A01FB691344DE
:101F000003F530631A46102393603B6903F0020324
:101F1000002B30D03B6A5B6903F08003802B09D132
:101F2000FB6903F500635B68FA6902F5006243F43C
:101F3000806353607A6A1346DB0013449B0003F509
:101F400014737A68134404337B617B69DB78012B5B
:101F500008D17B690022DA707B6ADBB219467868A7
:101F60000CF038FB7B6A5A01FB69134403F53063BC
:101F70001A46022393603B6903F02003002B08D02C
:101F80007B6A5A01FB69134403F530631A46202328
:101F900093603B6903F40053002B09D07B6A5A011C
:101FA000FB69134403F530631A464FF40053936002
:101FB0007B6A01337B62BB6A5B08BB62BB6A002B36
:101FC0007FF462AF7B681B68184606F03FFA034651
:101FD00003F48023B3F5802F40F0DB807B681B681F
:101FE000184606F060FAB86200237B62CDE0BB6A57
:101FF00003F00103002B00F0C2807B681B687A6A43
:10200000D2B21146184606F086FA38613B6903F0F1
:102010000103002B57D07B6A03F00F03012202FA61
:1020200003F3FB60FB6903F500635A6BFB68DB435A
:10203000F96901F5006113404B637B6A5A01FB6942
:10204000134403F510631A46012393607B689B7960
:10205000012B32D179687A6A1346DB0013449B0066
:102060000B442033196878687A6A1346DB001344FE
:102070009B0003441C331B68194478687A6A134632
:10208000DB0013449B000344203319607B6A002B60
:1020900013D179687A6A1346DB0013449B000B4422
:1020A00024331B68002B08D17B6818687B6803F217
:1020B0009C431A46012106F08FFA7B6ADBB219466F
:1020C00078680CF002FA3B6903F00803002B08D093
:1020D0007B6A5A01FB69134403F510631A4608230F
:1020E00093603B6903F01003002B08D07B6A5A0110
:1020F000FB69134403F510631A46102393603B6990
:1021000003F04003002B08D07B6A5A01FB6913449B
:1021100003F510631A46402393603B6903F0020302
:10212000002B23D0796A386A05F06EFA7A6A134672
:10213000DB0013449B0010337A68134404337B6143
:102140007B69DB78012B08D17B690022DA707B6A1E
:10215000DBB2194678680CF04FFA7B6A5A01FB69CA
:10216000134403F510631A46022393603B6903F09E
:102170008003002B03D0796A786800F0EAFC7B6A60
:1021800001337B62BB6A5B08BB62BB6A002B7FF4D6
:102190002EAF7B681B68184606F058F9034603F01B
:1021A0000043B3F1004F22D1FB6903F500635B6884
:1021B000FA6902F5006223F0010353607B6893F82B
:1021C000CC34012B08D17B68002283F8CC24002179
:1021D000786800F0F5FE02E078680CF0EDF97B68B5
:1021E0001B685A697B681B6802F000425A617B6871
:1021F0001B68184606F02AF9034603F40063B3F59A
:10220000006F12D1FB6903F500639B6803F00103C3
:10221000012B02D178680CF0A9F97B681B685A6918
:102220007B681B6802F400625A617B681B68184671
:1022300006F00CF9034603F00063B3F1006F21D1FF
:102240007B681B685A697B681B6802F000625A61F0
:102250007B6893F8CC34002B11D17B68012283F882
:10226000CC247B681B685B6D9B0803F00F027B68C6
:10227000C3F8D0240121786800F0A2FE02E078685B
:102280000CF074F97B681B68184606F0DFF803460B
:1022900003F48053B3F5805F40F0B780FB6903F52A
:1022A00000635B68FA6902F5006223F00103536082
:1022B0007B681B681021184605F0A6F90023FB6215
:1022C00046E0FB6A5A01FB69134403F510631A46A2
:1022D0004FF67F339360FB6A5A01FB69134403F5A1
:1022E00010631B68FA6A5101FA690A4402F5106228
:1022F00023F400131360FB6A5A01FB69134403F5CE
:1023000030631A464FF67F339360FB6A5A01FB69CC
:10231000134403F530631B68FA6A5101FA690A44F1
:1023200002F5306223F400131360FB6A5A01FB6963
:10233000134403F530631B68FA6A5101FA690A44D1
:1023400002F5306243F000631360FB6A0133FB6205
:102350007B681B791A46FB6A9342B2D3FB6903F58B
:102360000063DB69FA6902F5006243F00113D3618F
:102370007B68DB7B002B16D0FB6903F50063D3F889
:102380008430FA6902F5006243F00B03C2F884302E
:10239000FB6903F500635B6CFA6902F5006243F0C8
:1023A0000B03536415E0FB6903F500635A69FB698D
:1023B00003F50063194642F22B0313434B61FB699B
:1023C00003F500631B69FA6902F5006243F00B0331
:1023D0001361FB6903F500631B68FA6902F500628B
:1023E00023F4FE6313607B6818687B6899797B68C7
:1023F00003F29C431A4606F0EFF87B681B685A69A3
:102400007B681B6802F480525A617B681B6818461F
:1024100006F01CF8034603F40053B3F5005F23D124
:102420007B681B68184606F0B3F87B681B68184683
:1024300005F063F903461A467B68DA717B681C680D
:1024400001F09EFD01467B68DB791A46204604F0C8
:102450006DFE78680CF061F87B681B685A697B68D0
:102460001B6802F400525A617B681B68184605F02D
:10247000EDFF034603F00803082B0AD178680CF03F
:102480003EF87B681B685A697B681B6802F008028B
:102490005A617B681B68184605F0D8FF034603F0B5
:1024A0008003802B23D13B6A9B6923F080023B6A27
:1024B0009A6101237B6214E079687A6A1346DB0033
:1024C00013449B000B4403F257231B78012B05D1C7
:1024D0007B6ADBB21946786800F00AFB7B6A01333D
:1024E0007B627B681B791A467B6A9342E4D37B68E4
:1024F0001B68184605F0AAFF034603F48013B3F5E2
:10250000801F3CD101237B622BE07B6A5A01FB696F
:10251000134403F510631B68BB6179687A6A13463C
:10252000DB0013449B000B4418331B78012B15D19F
:10253000BB69002B12DA79687A6A1346DB00134410
:102540009B000B44173301221A707B6ADBB263F0E5
:102550007F03DBB21946786800F0CAFA7B6A013360
:102560007B627B681B791A467B6A9342CDD37B687A
:102570001B685A697B681B6802F480125A617B6889
:102580001B68184605F062FF034603F40013B3F519
:10259000001F56D101237B6245E07B6A5A01FB692B
:1025A000134403F530631B68BB6179687A6A13468C
:1025B000DB0013449B000B4403F516731B78012BBF
:1025C0002ED1BB69002B2BDABB691A0C7B68D3F8C0
:1025D000D434534003F00103002B21D179687A6A87
:1025E0001346DB0013449B000B4403F257230122E4
:1025F0001A703B6A9B6943F080023B6A9A613B6AAE
:102600005B6903F08003002B0AD1FB6903F50063CB
:102610005B68FA6902F5006243F40073536008E0F6
:102620007B6A01337B627B681B791A467B6A934223
:10263000B3D37B681B685A697B681B6802F400127D
:102640005A617B681B68184605F000FF034603F0DB
:102650008043B3F1804F0AD178680BF0DFFF7B68CD
:102660001B685A697B681B6802F080425A617B686C
:102670001B68184605F0EAFE034603F00403042B2A
:1026800015D17B681B685B68BB61BB6903F0040301
:10269000002B02D078680BF0CFFF7B681B6859686D
:1026A0007B681B68BA690A435A6000E000BF343790
:1026B000BD4690BD80B582B000AF78600B46FB7020
:1026C0007B6893F89434012B01D1022312E07B68DC
:1026D000012283F894247B68FA785A747B681B681B
:1026E000FA781146184605F049FE7B68002283F807
:1026F0009424002318460837BD4680BD80B584B0B9
:1027000000AF7860084611461A460346FB700B4638
:102710003B801346BB700023FB7297F90330002BFC
:102720000FDAFB7803F00F021346DB0013449B0023
:1027300010337A6813440433FB60FB6801225A703B
:102740000FE0FB7803F00F021346DB0013449B00FD
:1027500003F514737A6813440433FB60FB680022AA
:102760005A70FB7803F00F03DAB2FB681A703B88EB
:10277000C3F30A02FB689A60FB68BA781A71FB68B7
:102780005B78002B04D0FB681B781A46FB685A83E1
:10279000BB78022B02D1FB6800225A717B6893F848
:1027A0009434012B01D102230EE07B68012283F8CF
:1027B00094247B681B68F968184604F0C3FF7B68A3
:1027C000002283F89424FB7A18461037BD4680BD5A
:1027D00080B584B000AF78600B46FB7097F903308A
:1027E000002B0FDAFB7803F00F021346DB001344D3
:1027F0009B0010337A6813440433FB60FB680122AA
:102800005A700FE0FB7803F00F021346DB0013440D
:102810009B0003F514737A6813440433FB60FB6870
:1028200000225A70FB7803F00F03DAB2FB681A70CB
:102830007B6893F89434012B01D102230EE07B686E
:10284000012283F894247B681B68F968184605F018
:1028500001F87B68002283F894240023184610377F
:10286000BD4680BD80B586B000AFF8607A603B6041
:102870000B46FB72FB7A03F00F021346DB00134496
:102880009B0003F51473FA68134404337B617B697E
:102890007A68DA607B693A681A617B6900225A615A
:1028A0007B6900225A70FB7A03F00F03DAB27B696E
:1028B0001A70FB689B79012B02D17A687B69DA6117
:1028C000FB681868FB689B791A46796905F09EF8E1
:1028D000002318461837BD4680BD80B483B000AFD2
:1028E00078600B46FB70FB7803F00F0279681346A3
:1028F000DB0013449B000B4403F51A731B68184656
:102900000C37BD465DF8047B704780B586B000AFDC
:10291000F8607A603B600B46FB72FB7A03F00F02B3
:102920001346DB0013449B001033FA68134404334E
:102930007B617B697A68DA607B693A681A617B69D6
:1029400000225A617B6901225A70FB7A03F00F035F
:10295000DAB27B691A70FB689B79012B02D17A6825
:102960007B69DA61FB681868FB689B791A467969AC
:1029700005F04CF8002318461837BD4680BD80B5D9
:1029800084B000AF78600B46FB70FB7803F00F0358
:102990007A681279934201D901234FE097F9033005
:1029A000002B0FDAFB7803F00F021346DB00134411
:1029B0009B0010337A6813440433FB60FB680122E8
:1029C0005A700DE0FA781346DB0013449B0003F5C0
:1029D00014737A6813440433FB60FB6800225A7056
:1029E000FB6801229A70FB7803F00F03DAB2FB68F0
:1029F0001A707B6893F89434012B01D102231DE0F7
:102A00007B68012283F894247B681B68F968184668
:102A100005F0E0FBFB7803F00F03002B09D17B6886
:102A200018687B6899797B6803F29C431A4605F025
:102A3000D3FD7B68002283F89424002318461037C6
:102A4000BD4680BD80B584B000AF78600B46FB709A
:102A5000FB7803F00F037A681279934201D90123BE
:102A600042E097F90330002B0FDAFB7803F00F02F6
:102A70001346DB0013449B0010337A68134404337D
:102A8000FB60FB6801225A700FE0FB7803F00F0235
:102A90001346DB0013449B0003F514737A68134458
:102AA0000433FB60FB6800225A70FB6800229A70B6
:102AB000FB7803F00F03DAB2FB681A707B6893F8B7
:102AC0009434012B01D102230EE07B68012283F8AC
:102AD00094247B681B68F968184605F0E9FB7B685D
:102AE000002283F89424002318461037BD4680BD89
:102AF00080B584B000AF78600B46FB7097F9033067
:102B0000002B0CDAFB7803F00F021346DB001344B2
:102B10009B0010337A6813440433FB600CE0FB78AD
:102B200003F00F021346DB0013449B0003F51473FC
:102B30007A6813440433FB607B681B68F9681846A5
:102B400005F008FA0346FB72FB7A18461037BD46BB
:102B500080BD80B58AB002AF786039607B681B6841
:102B60007B617B693B613A681346DB0013449B0041
:102B700010337A6813440433FB60FB685A69FB68BE
:102B80001B699A4201D901236BE0FB681A69FB6853
:102B90005B69D31AFB61FB689B68FA699A4202D9A8
:102BA000FB689B68FB61FB6903339B08BB612AE000
:102BB000FB681A69FB685B69D31AFB61FB689B6859
:102BC000FA699A4202D9FB689B68FB61FB6903338F
:102BD0009B08BB61FB68D9683B68DAB2FB6998B2B5
:102BE0007B689B7900930346786905F05DFAFB6882
:102BF000DA68FB691A44FB68DA60FB685A69FB69AA
:102C00001A44FB685A613B685A013B69134403F557
:102C100010639B699BB2BA699A4209D8FB685A69EA
:102C2000FB681B699A4203D2FB681B69002BBFD16A
:102C3000FB681A69FB685B699A4211D83B6803F02C
:102C40000F03012202FA03F3BB603B6903F5006343
:102C50005A6BBB68DB43396901F5006113404B6374
:102C6000002318462037BD4680BD000080B588B0DF
:102C700000AF786039607B681B68FB61FB69BB61F2
:102C8000FB693C3304331B687B613B685A01BB69B9
:102C9000134403F530639B683B617B689B79012B90
:102CA0007BD13B6903F00803002B15D07B69614A97
:102CB000934240F2B9803B6903F40043002B00F0DB
:102CC000B3803B685A01BB69134403F530631A466D
:102CD0004FF400439360A7E03B6903F02003002B0F
:102CE00009D03B685A01BB69134403F530631A46A7
:102CF0002023936098E03B6903F02803002B40F009
:102D000093807B694B4A93420FD93B6903F400439C
:102D1000002B0AD03B685A01BB69134403F53063AA
:102D20001A464FF4004393607EE03A681346DB0096
:102D300013449B0003F514737A6813440433FB6057
:102D4000FB681A6A3B685901BB690B4403F53063A1
:102D50001B69C3F31203D21AFB685A613B68002B4C
:102D600014D1FB681B69002B09D17B6818687B684C
:102D700003F29C431A46012105F02EFC06E0FB6895
:102D8000DA68FB685B691A44FB68DA603B68DBB2AF
:102D9000194678680BF07EFB46E07B69264A934231
:102DA00024D13B6903F40043002B0AD03B685A014D
:102DB000BB69134403F530631A464FF40043936034
:102DC00032E03B6903F02003002B08D03B685A0136
:102DD000BB69134403F530631A46202393603B68B4
:102DE000DBB2194678680BF055FB1DE03B68002B01
:102DF00014D179683A681346DB0013449B000B44F6
:102E000003F519731B68002B08D17B6818687B6871
:102E100003F29C431A46002105F0DEFB3B68DBB25F
:102E2000194678680BF036FB002318462037BD465C
:102E300080BD00BF0A30544F0A31544F80B586B070
:102E400000AF786039607B681B687B617B693B61A0
:102E50007B693C3304331B68FB603B685A013B6968
:102E6000134403F530639B68BB60FB68154A9342CB
:102E70000ED9BB6803F40043002B09D03B685A010C
:102E80003B69134403F530631A464FF400439360E3
:102E900078680BF0EDFAFB680A4A93420CD97B681C
:102EA0009B79012B08D17B6818687B6803F29C43EF
:102EB0001A46012105F090FB002318461837BD463D
:102EC00080BD00BF0A30544F80B485B000AF786039
:102ED0000B46FB7013463B807B681B685B6ABB60DC
:102EE000FB78002B07D13B8819047B681B68BA6804
:102EF0000A439A6228E07B681B689B6A1B0CBA68CD
:102F00001344BB600023FB730DE07B681A68FB7BF6
:102F100040339B0013445B681B0CBA681344BB60CE
:102F2000FB7B0133FB73FA7BFB78013B9A42ECD3CA
:102F30003B8818047B681968FB78013BBA68024338
:102F400040339B000B445A60002318461437BD469B
:102F50005DF8047B704780B483B000AF78600B46A7
:102F60007B807B681B687A885A62002318460C377E
:102F7000BD465DF8047B704780B485B000AF7860D3
:102F80007B681B68FB607B680122C3F8D8247B68E0
:102F9000002283F8CC24FB689B6943F00062FB6845
:102FA0009A61FB685A6D054B1343FA685365002319
:102FB00018461437BD465DF8047B704703000010C7
:102FC00080B483B000AF78600B46FB7000BF0C3755
:102FD000BD465DF8047B704780B584B000AF786073
:102FE000194BDB6803F00403042B0AD0164BDB6893
:102FF00003F007037A689A4201D001231FE00023FF
:103000001DE0114BDB6823F007020F497B68134377
:10301000CB60FEF7B3F9F86009E0FEF7AFF90246BE
:10302000FB68D31AB3F57A7F01D9012307E0064B79
:103030005B6803F40053B3F5005FEED1002318463C
:103040001037BD4680BD00BF0048025880B400AFB5
:10305000054BDB68044A43F08073D36000BFBD4674
:103060005DF8047B704700BF0048025880B58CB003
:1030700000AF78607B68002B02D1012300F048BCD0
:103080007B681B6803F00103002B00F08880994BDC
:103090001B6903F03803FB62964B9B6ABB62FB6AB9
:1030A000102B07D0FB6A182B11D1BB6A03F0030366
:1030B000022B0CD18F4B1B6803F40033002B6DD017
:1030C0007B685B68002B69D1012300F021BC7B6821
:1030D0005B68B3F5803F06D1864B1B68854A43F495
:1030E000803313602EE07B685B68002B0CD1814B32
:1030F0001B68804A23F4803313607E4B1B687D4A33
:1031000023F4802313601DE07B685B68B3F5A02F78
:103110000CD1784B1B68774A43F480231360754BBE
:103120001B68744A43F4803313600BE0714B1B68D7
:10313000704A23F4803313606E4B1B686D4A23F48E
:10314000802313607B685B68002B13D0FEF716F9B1
:10315000786208E0FEF712F902467B6AD31A642B04
:1031600001D90323D4E3634B1B6803F40033002B22
:10317000F0D014E0FEF702F9786208E0FEF7FEF8FE
:1031800002467B6AD31A642B01D90323C0E3594B4F
:103190001B6803F40033002BF0D100E000BF7B6814
:1031A0001B6803F00203002B00F0CA80514B1B691F
:1031B00003F038033B624F4B9B6AFB613B6A002B79
:1031C00007D03B6A182B56D1FB6903F00303002B91
:1031D00051D1484B1B6803F00403002B05D07B68DA
:1031E000DB68002B01D1012392E3424B1B6823F0E3
:1031F00019027B68DB683F4913430B60FEF7BEF89A
:10320000786208E0FEF7BAF802467B6AD31A022B0E
:1032100001D903237CE3374B1B6803F00403002B25
:10322000F0D0FEF7DBF8034641F20302934217D8D1
:103230007B681B69402B08D12E4B5B6823F47C33E1
:103240002C4A43F4003353607AE02A4B5B6823F442
:103250007C327B681B691B03264913434B606FE07C
:10326000244B5B6823F0FE427B681B691B062149E7
:1032700013434B6064E07B68DB68002B47D01D4B39
:103280001B6823F019027B68DB681A4913430B6043
:10329000FEF774F8786208E0FEF770F802467B6A81
:1032A000D31A022B01D9032332E3124B1B6803F01C
:1032B0000403002BF0D0FEF791F8034641F203021D
:1032C000934219D87B681B69402B08D1094B5B6876
:1032D00023F47C33074A43F40033536030E0054B5A
:1032E0005B6823F47C327B681B691B030149134331
:1032F0004B6025E0004402589A4B5B6823F0FE4285
:103300007B681B691B06974913434B6018E0954B7C
:103310001B68944A23F001031360FEF72FF87862CC
:1033200008E0FEF72BF802467B6AD31A022B01D97C
:103330000323EDE28B4B1B6803F00403002BF0D159
:103340007B681B6803F01003002B00F0A980854BFD
:103350001B6903F03803BB61824B9B6A7B61BB69CD
:10336000082B07D0BB69182B3AD17B6903F0030304
:10337000012B35D17B4B1B6803F48073002B05D0E8
:103380007B68DB69802B01D00123C1E2FEF726F8C0
:10339000034641F20302934217D87B681B6A202B35
:1033A00008D1704B5B6823F0F8436E4A43F08043CA
:1033B000536075E06B4B5B6823F0F8427B681B6AD7
:1033C0009B06684913434B606AE0664BDB6823F059
:1033D0007C527B681B6A1B0662491343CB605FE02B
:1033E0007B68DB69002B42D05E4B1B685D4A43F073
:1033F00080031360FDF7C2FF786208E0FDF7BEFFAF
:1034000002467B6AD31A022B01D9032380E2554B73
:103410001B6803F48073002BF0D0FDF7DFFF034639
:1034200041F20302934217D87B681B6A202B08D114
:103430004C4B5B6823F0F8434A4A43F080435360A7
:103440002EE0484B5B6823F0F8427B681B6A9B06C2
:10345000444913434B6023E0424BDB6823F07C522A
:103460007B681B6A1B063F491343CB6018E03D4B4A
:103470001B683C4A23F080031360FDF77FFF7862EE
:1034800008E0FDF77BFF02467B6AD31A022B01D9C5
:1034900003233DE2334B1B6803F48073002BF0D110
:1034A0007B681B6803F00803002B36D07B685B69E0
:1034B000002B19D02B4B5B6F2A4A43F00103536753
:1034C000FDF75CFF786208E0FDF758FF02467B6A73
:1034D000D31A022B01D903231AE2224B5B6F03F0AC
:1034E0000203002BF0D018E01E4B5B6F1D4A23F047
:1034F00001035367FDF742FF786208E0FDF73EFFE6
:1035000002467B6AD31A022B01D9032300E2154B32
:103510005B6F03F00203002BF0D17B681B6803F0A4
:103520002003002B39D07B689B69002B1CD00D4BEE
:103530001B680C4A43F480531360FDF71FFF786249
:1035400008E0FDF71BFF02467B6AD31A022B01D964
:103550000323DDE1034B1B6803F40053002BF0D081
:103560001BE000BF004402589B4B1B689A4A23F49F
:1035700080531360FDF702FF786208E0FDF7FEFE5E
:1035800002467B6AD31A022B01D90323C0E1924B76
:103590001B6803F40053002BF0D17B681B6803F019
:1035A0000403002B00F081808C4B1B688B4A43F492
:1035B00080731360FDF7E2FE786208E0FDF7DEFE3F
:1035C00002467B6AD31A642B01D90323A0E1834B03
:1035D0001B6803F48073002BF0D07B689B68012B81
:1035E00006D17D4B1B6F7C4A43F0010313672DE02E
:1035F0007B689B68002B0CD1774B1B6F764A23F0BE
:1036000001031367744B1B6F734A23F004031367A2
:103610001CE07B689B68052B0CD16F4B1B6F6E4ABF
:1036200043F0040313676C4B1B6F6B4A43F00103B9
:1036300013670BE0684B1B6F674A23F001031367A6
:10364000654B1B6F644A23F0040313677B689B6818
:10365000002B15D0FDF792FE78620AE0FDF78EFE92
:1036600002467B6AD31A41F28832934201D903237E
:103670004EE1594B1B6F03F00203002BEED014E018
:10368000FDF77CFE78620AE0FDF778FE02467B6A71
:10369000D31A41F28832934201D9032338E14E4BC9
:1036A0001B6F03F00203002BEED17B685B6A002BDB
:1036B00000F02D81484B1B6903F03803182B00F0F4
:1036C000BD807B685B6A022B40F09E80424B1B688A
:1036D000414A23F080731360FDF750FE786208E0E2
:1036E000FDF74CFE02467B6AD31A022B01D9032355
:1036F0000EE1394B1B6803F00073002BF0D1364B01
:103700009A6A374B13407A68916A7A68D26A1201D2
:103710000A43314913438B627B681B6B013BC3F344
:1037200008027B685B6B013B5B029BB21A437B68C0
:103730009B6B013B1B0403F4FE031A437B68DB6BAA
:10374000013B1B0603F0FE43234913430B63224B4B
:10375000DB6A214A23F00103D3621F4B5A6B214BD2
:1037600013407A68926CD2001B4913434B631A4B87
:10377000DB6A23F00C027B681B6C17491343CB6296
:10378000154BDB6A23F002027B685B6C1249134322
:10379000CB62114BDB6A104A43F48033D3620E4B89
:1037A000DB6A0D4A43F40033D3620B4BDB6A0A4AEF
:1037B00043F48023D362084BDB6A074A43F00103DA
:1037C000D362054B1B68044A43F080731360FDF716
:1037D000D5FD786211E000BF00440258004802584D
:1037E0000CFCFFFF0700FFFFFDF7C8FD02467B6AE8
:1037F000D31A022B01D903238AE0474B1B6803F03D
:103800000073002BF0D082E0434B1B68424A23F048
:1038100080731360FDF7B2FD786208E0FDF7AEFD3E
:1038200002467B6AD31A022B01D9032370E03A4B7C
:103830001B6803F00073002BF0D168E0364B9B6AE5
:103840003B61354B1B6BFB607B685B6A012B31D0A6
:103850003B6903F003027B689B6A9A422AD13B6969
:103860001B0903F03F027B68DB6A9A4222D1FB68A6
:10387000C3F308027B681B6B013B9A421AD1FB68B9
:103880005B0A03F07F027B685B6B013B9A4211D1BC
:10389000FB681B0C03F07F027B689B6B013B9A4229
:1038A00008D1FB681B0E03F07F027B68DB6B013BDA
:1038B0009A4201D001232BE0174B5B6BDB08C3F36B
:1038C0000C033B617B689B6C3A699A421FD0124B98
:1038D000DB6A114A23F00103D362FDF74FFD7862E2
:1038E00000BFFDF74BFD02467B6A9342F9D00A4BBD
:1038F0005A6B0A4B13407A68926CD2000649134304
:103900004B63054BDB6A044A43F00103D362002397
:1039100018463037BD4680BD004402580700FFFFFF
:1039200080B586B000AF786039607B68002B01D12C
:1039300001239CE18A4B1B6803F00F033A689A420B
:1039400010D9874B1B6823F00F0285493B6813434E
:103950000B60834B1B6803F00F033A689A4201D057
:10396000012384E17B681B6803F00403002B10D063
:103970007B681A697B4B9B6903F070039A4208D9F4
:10398000784B9B6923F070027B681B697549134370
:103990008B617B681B6803F00803002B10D07B68E9
:1039A0005A69704BDB6903F070039A4208D96D4B7A
:1039B000DB6923F070027B685B696A491343CB6162
:1039C0007B681B6803F01003002B10D07B689A699A
:1039D000644BDB6903F4E0639A4208D9614BDB690D
:1039E00023F4E0627B689B695E491343CB617B688B
:1039F0001B6803F02003002B10D07B68DA69594B59
:103A00001B6A03F070039A4208D9564B1B6A23F0D5
:103A100070027B68DB69534913430B627B681B6848
:103A200003F00203002B10D07B68DA684D4B9B69D2
:103A300003F00F039A4208D94A4B9B6923F00F0207
:103A40007B68DB68474913438B617B681B6803F025
:103A50000103002B55D0434B9B6923F470627B68B4
:103A60009B68404913438B617B685B68022B07D1DD
:103A70003C4B1B6803F40033002B21D10123F6E0FB
:103A80007B685B68032B07D1364B1B6803F0007320
:103A9000002B15D10123EAE07B685B68012B07D17D
:103AA000304B1B6803F48073002B09D10123DEE047
:103AB0002C4B1B6803F00403002B01D10123D6E03B
:103AC000284B1B6923F007027B685B682549134379
:103AD0000B61FDF753FC78610AE0FDF74FFC0246ED
:103AE0007B69D31A41F28832934201D90323BEE0A5
:103AF0001C4B1B6903F038027B685B68DB009A4251
:103B0000EBD17B681B6803F00203002B10D07B68AD
:103B1000DA68144B9B6903F00F039A4208D2114BE9
:103B20009B6923F00F027B68DB680E4913438B61AE
:103B30000B4B1B6803F00F033A689A4214D2084BF0
:103B40001B6823F00F0206493B6813430B60044BCC
:103B50001B6803F00F033A689A4205D0012386E000
:103B600000200052004402587B681B6803F00403E5
:103B7000002B10D07B681A693F4B9B6903F07003E0
:103B80009A4208D23C4B9B6923F070027B681B6908
:103B9000394913438B617B681B6803F00803002BD2
:103BA00010D07B685A69344BDB6903F070039A428A
:103BB00008D2314BDB6923F070027B685B692E49C8
:103BC0001343CB617B681B6803F01003002B10D0FC
:103BD0007B689A69284BDB6903F4E0639A4208D258
:103BE000254BDB6923F4E0627B689B692249134320
:103BF000CB617B681B6803F02003002B10D07B682F
:103C0000DA691D4B1B6A03F070039A4208D21A4B03
:103C10001B6A23F070027B68DB69174913430B6250
:103C200000F034F80246144B9B691B0A03F00F03A3
:103C30001249CB5C03F01F0322FA03F33B610E4BE6
:103C40009B6903F00F030D4AD35C03F01F033A692D
:103C500022FA03F30A4A13600A4A3B6913600A4BCB
:103C60001B681846FDF710F90346FB73FB7B1846EB
:103C70001837BD4680BD00BF00440258F036010829
:103C800004000024000000240800002480B489B04F
:103C900000AFB34B1B6903F03803182B00F25581BA
:103CA00001A252F823F000BF0D3D00084B3F000871
:103CB0004B3F00084B3F00084B3F00084B3F0008BC
:103CC0004B3F00084B3F0008333D00084B3F0008C6
:103CD0004B3F00084B3F00084B3F00084B3F00089C
:103CE0004B3F00084B3F0008393D00084B3F0008A0
:103CF0004B3F00084B3F00084B3F00084B3F00087C
:103D00004B3F00084B3F00083F3D0008944B1B68A9
:103D100003F02003002B09D0914B1B68DB0803F054
:103D20000303904A22FA03F3BB6111E18D4BBB619F
:103D30000EE18D4BBB610BE18C4BBB6108E1884B05
:103D40009B6A03F003037B61854B9B6A1B0903F0AD
:103D50003F033B61824BDB6A03F00103FB60804B56
:103D60005B6BDB08C3F30C03FA6802FB03F307EE9B
:103D7000903AF8EE677AC7ED027A3B69002B00F0C3
:103D8000E1807B69022B00F083807B69022B00F2CB
:103D9000A1807B69002B03D07B69012B56D099E071
:103DA0006F4B1B6803F02003002B2DD06C4B1B685E
:103DB000DB0803F003036B4A22FA03F37B607B68A2
:103DC00007EE903AF8EE676A3B6907EE903AF8EE34
:103DD000677A86EEA77A624B1B6BC3F3080307EE84
:103DE000903AF8EE676A97ED026ADFED615AC6EE27
:103DF000257A76EEA77AF7EE006A77EEA67A67EE76
:103E0000277AC7ED077A87E03B6907EE903AF8EE2C
:103E1000677ADFED586A86EEA77A514B1B6BC3F3C6
:103E2000080307EE903AF8EE676A97ED026ADFED55
:103E3000505AC6EE257A76EEA77AF7EE006A77EE4C
:103E4000A67A67EE277AC7ED077A65E03B6907EE49
:103E5000903AF8EE677ADFED486A86EEA77A404B33
:103E60001B6BC3F3080307EE903AF8EE676A97ED11
:103E7000026ADFED3F5AC6EE257A76EEA77AF7EEB4
:103E8000006A77EEA67A67EE277AC7ED077A43E0F5
:103E90003B6907EE903AF8EE677ADFED386A86EE16
:103EA000A77A2F4B1B6BC3F3080307EE903AF8EE8B
:103EB000676A97ED026ADFED2E5AC6EE257A76EE36
:103EC000A77AF7EE006A77EEA67A67EE277AC7ED53
:103ED000077A21E03B6907EE903AF8EE677ADFED6A
:103EE000266A86EEA77A1E4B1B6BC3F3080307EE08
:103EF000903AF8EE676A97ED026ADFED1D5AC6EE5A
:103F0000257A76EEA77AF7EE006A77EEA67A67EE64
:103F1000277AC7ED077A00BF114B1B6B5B0A03F0D2
:103F20007F0301333B603B6807EE903AB8EE677A57
:103F3000D7ED076AC6EE877AFCEEE77A17EE903A7D
:103F4000BB6105E00023BB6102E0074BBB6100BF22
:103F5000BB6918462437BD465DF8047B704700BF37
:103F6000004402580090D00300093D0000127A007E
:103F7000000000460024744C0024744A0024F44AD3
:103F800080B582B000AFFFF781FE0246104B9B69FF
:103F90001B0A03F00F030F49CB5C03F01F0322FA47
:103FA00003F37B600A4B9B6903F00F03094AD35C60
:103FB00003F01F037A6822FA03F3074A1360074AE3
:103FC0007B681360044B1B6818460837BD4680BDEC
:103FD00000440258F03601080400002400000024C8
:103FE00080B500AFFFF7CCFF0246064BDB691B092B
:103FF00003F007030449CB5C03F01F0322FA03F329
:10400000184680BD00440258F036010880B483B0E1
:1040100000AF786039607B683F221A601A4B1B69D9
:1040200003F007027B685A60174B9B6903F47062C8
:104030007B689A60144B9B6903F00F027B68DA601F
:10404000114B9B6903F070027B681A610E4BDB69B0
:1040500003F070027B685A610B4BDB6903F4E0628A
:104060007B689A61084B1B6A03F070027B68DA6117
:10407000064B1B6803F00F023B681A6000BF0C3749
:10408000BD465DF8047B7047004402580020005292
:104090002DE9B04FCAB000AFC7F81401002387F86C
:1040A0002731002387F82631D7F81431D3E90023CC
:1040B00002F00064002554EA050349D0D7F8143112
:1040C0009B6EB3F5401F2FD0B3F5401F28D8B3F532
:1040D000001F1AD0B3F5001F22D8002B03D0B3F570
:1040E000801F07D01CE0B84BDB6AB74A43F40033AB
:1040F000D3621AE0D7F8143108330221184601F0D0
:10410000D1F9034687F827310FE0D7F81431283367
:104110000221184601F078FA034687F8273104E0B7
:10412000012387F8273100E000BF97F82731002BE3
:104130000AD1A54B1B6D23F44011D7F814319B6EA7
:10414000A14A0B43136503E097F8273187F826311E
:10415000D7F81431D3E9002302F480784FF0000936
:1041600058EA090347D0D7F814319B6D042B2AD89D
:1041700001A252F823F000BF8D4100089B410008C6
:10418000B1410008CF410008CF4100088E4BDB6AE7
:104190008D4A43F40033D3621AE0D7F81431083360
:1041A0000021184601F07EF9034687F827310FE019
:1041B000D7F8143128330021184601F025FA0346B8
:1041C00087F8273104E0012387F8273100E000BF9A
:1041D00097F82731002B0AD17B4B1B6D23F0070189
:1041E000D7F814319B6D784A0B43136503E097F8B9
:1041F000273187F82631D7F81431D3E9002302F4A8
:10420000007A4FF0000B5AEA0B034CD0D7F8143168
:10421000DB6DB3F5807F30D0B3F5807F29D8C02B1C
:104220002DD0C02B25D8802B18D0802B21D8002B47
:1042300002D0402B07D01CE0634BDB6A624A43F498
:104240000033D3621CE0D7F814310833002118463C
:1042500001F028F9034687F8273111E0D7F8143127
:1042600028330021184601F0CFF9034687F827319B
:1042700006E0012387F8273102E000BF00E000BF1D
:1042800097F82731002B0AD14F4B1B6D23F4E071B7
:10429000D7F81431DB6D4C4A0B43136503E097F8F4
:1042A000273187F82631D7F81431D3E9002302F4F7
:1042B0008063C7F808310023C7F80C31D7E94212F0
:1042C0000B46134353D0D7F81431D3F8A830B3F5C5
:1042D000000F35D0B3F5000F2ED8B3F5C00F31D095
:1042E000B3F5C00F28D8B3F5800F1AD0B3F5800FFF
:1042F00022D8002B03D0B3F5001F07D01CE0324BAF
:10430000DB6A314A43F40033D3621CE0D7F814313E
:1043100008330021184601F0C5F8034687F8273115
:1043200011E0D7F8143128330021184601F06CF958
:10433000034687F8273106E0012387F8273102E09A
:1043400000BF00E000BF97F82731002B0BD11E4BB8
:104350009B6D23F46001D7F81431D3F8A8301A4AC2
:104360000B43936503E097F8273187F82631D7F898
:104370001431D3E9002302F40063C7F800310023AD
:10438000C7F80431D7E940120B46134356D0D7F88B
:104390001431D3F8AC30B3F1806F38D0B3F1806F03
:1043A00031D8B3F1407F34D0B3F1407F2BD8B3F193
:1043B000007F1DD0B3F1007F25D8002B06D0B3F1CC
:1043C000807F0AD01FE000BF00440258A24BDB6A86
:1043D000A14A43F40033D3621CE0D7F81431083308
:1043E0000021184601F05EF8034687F8273111E0F6
:1043F000D7F8143128330021184601F005F9034697
:1044000087F8273106E0012387F8273102E000BF53
:1044100000E000BF97F82731002B0BD18E4B9B6D2E
:1044200023F0E061D7F81431D3F8AC308A4A0B435B
:10443000936503E097F8273187F82631D7F81431D0
:10444000D3E9002302F00073C7F8F8300023C7F85F
:10445000FC30D7E93E120B4613433AD0D7F814315B
:10446000DB6C302B1FD0302B19D8202B0CD0202BFD
:1044700015D8002B19D0102B11D1774BDB6A764A57
:1044800043F40033D36211E0D7F81431083302212A
:10449000184601F007F8034687F8273106E00123A4
:1044A00087F8273102E000BF00E000BF97F827310E
:1044B000002B0AD1684BDB6C23F03001D7F81431A4
:1044C000DB6C654A0B43D36403E097F8273187F828
:1044D0002631D7F81431D3E9002302F48053C7F80A
:1044E000F0300023C7F8F430D7E93C120B461343F1
:1044F00051D0D7F814311B6EB3F5804F35D0B3F5DA
:10450000804F2ED8B3F5405F31D0B3F5405F28D847
:10451000B3F5005F1AD0B3F5005F22D8002B03D0AB
:10452000B3F5805F07D01CE04B4BDB6A4A4A43F48B
:104530000033D3621CE0D7F8143108330021184649
:1045400000F0B0FF034687F8273111E0D7F81431A7
:1045500028330021184601F057F8034687F8273121
:1045600006E0012387F8273102E000BF00E000BF2A
:1045700097F82731002B0AD1374B1B6D23F4E0410C
:10458000D7F814311B6E344A0B43136503E097F8D8
:10459000273187F82631D7F81431D3E9002302F404
:1045A0000053C7F8E8300023C7F8EC30D7E93A12D7
:1045B0000B46134356D0D7F814315B6EB3F5A02FDA
:1045C00033D0B3F5A02F2CD8B3F5802F2FD0B3F56F
:1045D000802F26D8B3F5403F2BD0B3F5403F20D8ED
:1045E000B3F5003F12D0B3F5003F1AD8002B22D00C
:1045F000B3F5803F15D1D7F814310833012118469F
:1046000000F050FF034687F8273115E0D7F8143142
:1046100028330121184600F0F7FF034687F82731B9
:104620000AE0012387F8273106E000BF04E000BF5D
:1046300002E000BF00E000BF97F82731002B0DD14A
:10464000054B1B6D23F4E021D7F814315B6E024A51
:104650000B43136506E000BF0044025897F827316A
:1046600087F82631D7F81431D3E9002302F48043C8
:10467000C7F8E0300023C7F8E430D7E938120B461A
:10468000134355D0D7F81431D3F8B030B3F1A04F5D
:1046900033D0B3F1A04F2CD8B3F1804F2FD0B3F16A
:1046A000804F26D8B3F1405F2BD0B3F1405F20D8C4
:1046B000B3F1005F12D0B3F1005F1AD8002B22D003
:1046C000B3F1805F15D1D7F81431083301211846B2
:1046D00000F0E8FE034687F8273115E0D7F81431DB
:1046E00028330121184600F08FFF034687F8273151
:1046F0000AE0012387F8273106E000BF04E000BF8D
:1047000002E000BF00E000BF97F82731002B0BD17B
:10471000A34B9B6D23F0E041D7F81431D3F8B030B0
:104720009F4A0B43936503E097F8273187F82631BA
:10473000D7F81431D3E9002302F40043C7F8D83086
:104740000023C7F8DC30D7E936120B46134337D0C5
:10475000D7F814311B6FB3F1005F0ED0B3F1005FD7
:1047600016D8002B18D0B3F1805F11D18C4BDB6AC7
:104770008B4A43F40033D3620FE0D7F81431083387
:104780000121184600F08EFE034687F8273104E029
:10479000012387F8273100E000BF97F82731002B6D
:1047A0000AD17F4B1B6D23F04051D7F814311B6F9A
:1047B0007B4A0B43136503E097F8273187F82631CE
:1047C000D7F81431D3E9002302F08073C7F8D03052
:1047D0000023C7F8D430D7E934120B46134339D03D
:1047E000D7F814319B6C032B1CD801A252F823F08C
:1047F0002D480008014800080F4800082D4800080F
:10480000674BDB6A664A43F40033D3620FE0D7F8A4
:10481000143108330221184600F044FE034687F89D
:10482000273104E0012387F8273100E000BF97F823
:104830002731002B0AD15A4BDB6C23F00301D7F848
:1048400014319B6C564A0B43D36403E097F827312D
:1048500087F82631D7F81431D3E9002302F4800316
:10486000C7F8C8300023C7F8CC30D7E932120B465E
:10487000134300F09F804B4B1B684A4A43F48073FC
:104880001360FCF77BFDC7F820010BE0FCF776FD19
:104890000246D7F82031D31A642B03D9032387F8B3
:1048A000273105E03F4B1B6803F48073002BEDD0EC
:1048B00097F82731002B79D1394B1A6FD7F814317B
:1048C000D3F8B430534003F44073002B15D0344B6D
:1048D0001B6F23F44073C7F81C31314B1B6F304AF8
:1048E00043F4803313672E4B1B6F2D4A23F4803320
:1048F00013672B4AD7F81C311367D7F81431D3F854
:10490000B430B3F5807F18D1FCF738FDC7F820012B
:104910000DE0FCF733FD0246D7F82031D21A41F200
:1049200088339A4203D9032387F8273105E01C4BCB
:104930001B6F03F00203002BEBD097F82731002BFD
:1049400029D1D7F81431D3F8B43003F44073B3F558
:10495000407F0ED1124B1B6923F47C51D7F81431E0
:10496000D3F8B4301A09104B13400D4A0B431361AE
:1049700005E00B4B1B690A4A23F47C531361084B77
:10498000196FD7F81431D3F8B430C3F30B03044ACA
:104990000B4313670EE097F8273187F8263109E0BB
:1049A0000044025800480258CFFFFF0097F8273113
:1049B00087F82631D7F81431D3E9002302F0010338
:1049C000C7F8C0300023C7F8C430D7E930120B460F
:1049D000134300F08980D7F81431DB6F282B6BD894
:1049E00001A252F823F000BFC14A0008B94A0008EA
:1049F000B94A0008B94A0008B94A0008B94A00088B
:104A0000B94A0008B94A00088D4A0008B94A0008A6
:104A1000B94A0008B94A0008B94A0008B94A00086A
:104A2000B94A0008B94A0008A34A0008B94A000870
:104A3000B94A0008B94A0008B94A0008B94A00084A
:104A4000B94A0008B94A0008C14A0008B94A000832
:104A5000B94A0008B94A0008B94A0008B94A00082A
:104A6000B94A0008B94A0008C14A0008B94A000812
:104A7000B94A0008B94A0008B94A0008B94A00080A
:104A8000B94A0008B94A0008C14A0008D7F81431E9
:104A900008330121184600F005FD034687F8273149
:104AA0000FE0D7F8143128330121184600F0ACFD8F
:104AB000034687F8273104E0012387F8273100E017
:104AC00000BF97F82731002B0AD1BF4B5B6D23F055
:104AD0003801D7F81431DB6FBB4A0B43536503E051
:104AE00097F8273187F82631D7F81431D3E9002316
:104AF00002F00203C7F8B8300023C7F8BC30D7E98A
:104B00002E120B46134341D0D7F814319B6F052B5F
:104B100024D801A252F823F0654B0008314B00085D
:104B2000474B0008654B0008654B0008654B0008C3
:104B3000D7F8143108330121184600F0B3FC0346BE
:104B400087F827310FE0D7F81431283301211846B0
:104B500000F05AFD034687F8273104E0012387F867
:104B6000273100E000BF97F82731002B0AD1964B80
:104B70005B6D23F00701D7F814319B6F924A0B430A
:104B8000536503E097F8273187F82631D7F81431B9
:104B9000D3E9002302F00403C7F8B0300023C7F8BC
:104BA000B430D7E92C120B46134344D0D7F8143154
:104BB000D3F89430052B25D801A252F823F000BF7A
:104BC0000D4C0008D94B0008EF4B00080D4C0008B5
:104BD0000D4C00080D4C0008D7F8143108330121A2
:104BE000184600F05FFC034687F827310FE0D7F83E
:104BF000143128330121184600F006FD034687F8DA
:104C0000273104E0012387F8273100E000BF97F83F
:104C10002731002B0BD16C4B9B6D23F00701D7F88C
:104C20001431D3F89430684A0B43936503E097F846
:104C3000273187F82631D7F81431D3E9002302F061
:104C40002003C7F8A8300023C7F8AC30D7E92A12F0
:104C50000B46134355D0D7F81431D3F89030B3F145
:104C6000A04F33D0B3F1A04F2CD8B3F1804F2FD049
:104C7000B3F1804F26D8B3F1405F2BD0B3F1405F42
:104C800020D8B3F1005F12D0B3F1005F1AD8002B27
:104C900022D0B3F1805F15D1D7F814310833002149
:104CA000184600F0FFFB034687F8273115E0D7F8D8
:104CB000143128330221184600F0A6FC034687F879
:104CC00027310AE0012387F8273106E000BF04E01E
:104CD00000BF02E000BF00E000BF97F82731002BC3
:104CE0000BD1394B5B6D23F0E041D7F81431D3F889
:104CF0009030354A0B43536503E097F8273187F826
:104D00002631D7F81431D3E9002302F04003C7F865
:104D1000A0300023C7F8A430D7E928120B4613436C
:104D200058D0D7F81431D3F89C30B3F5A05F33D006
:104D3000B3F5A05F2CD8B3F5805F2FD0B3F5805FBB
:104D400026D8B3F5406F2BD0B3F5406F20D8B3F51C
:104D5000006F12D0B3F5006F1AD8002B22D0B3F534
:104D6000806F15D1D7F8143108330021184600F0B0
:104D700099FB034687F8273115E0D7F8143128331B
:104D80000221184600F040FC034687F827310AE06C
:104D9000012387F8273106E000BF04E000BF02E0EE
:104DA00000BF00E000BF97F82731002B0ED1064B63
:104DB0009B6D23F4E051D7F81431D3F89C30024AAC
:104DC0000B43936506E000BF0044025897F8273173
:104DD00087F82631D7F81431D3E9002302F0800395
:104DE000C7F898300023C7F89C30D7E926120B4645
:104DF000134355D0D7F81431D3F8A030B3F5204F72
:104E000033D0B3F5204F2CD8B3F5004F2FD0B3F5E6
:104E1000004F26D8B3F5C04F2BD0B3F5C04F20D8E4
:104E2000B3F5804F12D0B3F5804F1AD8002B22D0A3
:104E3000B3F5005F15D1D7F81431083300211846B7
:104E400000F030FB034687F8273115E0D7F814311E
:104E500028330221184600F0D7FB034687F8273194
:104E60000AE0012387F8273106E000BF04E000BF15
:104E700002E000BF00E000BF97F82731002B0BD104
:104E8000A14B9B6D23F46041D7F81431D3F8A030C7
:104E90009D4A0B43936503E097F8273187F8263145
:104EA000D7F81431D3E9002302F00803C7F8903093
:104EB0000023C7F89430D7E924120B4613431ED0C1
:104EC000D7F81431D3F88430B3F5805F0CD1D7F81C
:104ED000143128330221184600F096FB0346002BBC
:104EE00002D0012387F82631874B5B6D23F44051B4
:104EF000D7F81431D3F88430834A0B435365D7F87D
:104F00001431D3E9002302F01003C7F888300023DE
:104F1000C7F88C30D7E922120B4613431ED0D7F8BE
:104F20001431D3F89830B3F5807F0CD1D7F8143111
:104F300028330221184600F067FB0346002B02D0FD
:104F4000012387F82631704B9B6D23F44071D7F80D
:104F50001431D3F898306C4A0B439365D7F8143169
:104F6000D3E9002302F40023C7F880300023C7F8F8
:104F70008430D7E920120B4613433ED0D7F81431C2
:104F8000D3F8A430B3F5003F22D0B3F5003F1BD8CF
:104F9000002B03D0B3F5803F0BD015E0D7F81431C8
:104FA00008330021184600F07DFA034687F82731C0
:104FB0000FE0D7F8143128330221184600F024FB03
:104FC000034687F8273104E0012387F8273100E002
:104FD00000BF97F82731002B0BD14B4B9B6D23F46F
:104FE0004031D7F81431D3F8A430474A0B439365C6
:104FF00003E097F8273187F82631D7F81431D3E941
:10500000002302F48023BB670023FB67D7E91E124D
:105010000B4613433BD0D7F81431D3F88830B3F59F
:10502000401F1FD0B3F5401F18D8B3F5801F03D021
:10503000B3F5001F07D011E0334BDB6A324A43F46B
:105040000033D3620FE0D7F814312833012118461A
:1050500000F0DAFA034687F8273104E0012387F8E5
:10506000273100E000BF97F82731002B0BD1264BEA
:105070005B6D23F44011D7F81431D3F88830224AFD
:105080000B43536503E097F8273187F82631D7F8AB
:105090001431D3E9002302F480333B6700237B679C
:1050A000D7E91C120B46134334D0D7F814311B6DCB
:1050B000002B03D0B3F5803F07D011E0124BDB6A21
:1050C000114A43F40033D3620EE0D7F814310833A9
:1050D0000221184600F0E6F9034687F8273103E07D
:1050E000012387F8273100BF97F82731002B0DD116
:1050F000054BDB6C23F48031D7F814311B6D024A69
:105100000B43D36406E000BF0044025897F82731F0
:1051100087F82631D7F81431D3E9002302F0005381
:10512000BB660023FB66D7E91A120B4613430CD06B
:10513000D7F8143128330221184600F065FA0346E7
:10514000002B02D0012387F82631D7F81431D3E998
:10515000002302F400333B6600237B66D7E9181274
:105160000B46134338D0D7F81431D3F88030B3F559
:10517000407F18D0B3F5407F11D8B3F5007F14D02D
:10518000B3F5007F0BD8002B11D0B3F5807F06D18B
:10519000C34BDB6AC24A43F40033D36208E0012305
:1051A00087F8273104E000BF02E000BF00E000BF45
:1051B00097F82731002B0BD1B94B5B6D23F440716D
:1051C000D7F81431D3F88030B54A0B43536503E068
:1051D00097F8273187F82631D7F81431D3E900231F
:1051E00002F48013BB650023FB65D7E916120B465A
:1051F000134309D0AA4B1B6D23F00041D7F814319B
:105200005B6FA74A0B431365D7F81431D3E900232A
:1052100002F080533B6500237B65D7E914120B46EF
:1052200013430AD09E4B1B6923F48041D7F81431F5
:10523000D3F8B8309A4A0B431361D7F81431D3E945
:10524000002302F40013BB640023FB64D7E91212AD
:105250000B46134309D0924B1B6D23F08071D7F896
:105260001431DB6E8E4A0B431365D7F81431D3E942
:10527000002302F080433B6400237B64D7E91012D3
:105280000B4613430ED0864B1B69854A23F400431B
:105290001361834B1969D7F81431D3F8BC30804AB5
:1052A0000B431361D7F81431D3E9002302F0004314
:1052B000BB630023FB63D7E90E120B46134309D0EF
:1052C000774BDB6C23F04051D7F814315B6D744A97
:1052D0000B43D364D7F81431D3E9002302F400035D
:1052E0003B6300237B63D7E90C120B4613430AD0C0
:1052F0006B4B5B6D23F44001D7F81431D3F88C303D
:10530000674A0B435365D7F81431D3E900230021D2
:10531000B96203F00103FB62D7E90A120B4613439B
:1053200011D0D7F8143108330021184600F0BAF82C
:10533000034687F8273197F82731002B03D097F8D9
:10534000273187F82631D7F81431D3E9002300211B
:10535000396203F002037B62D7E908120B4613435C
:1053600011D0D7F8143108330121184600F09AF80B
:10537000034687F8273197F82731002B03D097F899
:10538000273187F82631D7F81431D3E900230021DB
:10539000B96103F00403FB61D7E906120B4613431E
:1053A00011D0D7F8143108330221184600F07AF8EA
:1053B000034687F8273197F82731002B03D097F859
:1053C000273187F82631D7F81431D3E9002300219B
:1053D000396103F008037B61D7E904120B461343DC
:1053E00011D0D7F8143128330021184600F00CF9F9
:1053F000034687F8273197F82731002B03D097F819
:10540000273187F82631D7F81431D3E9002300215A
:10541000B96003F01003FB60D7E902120B46134397
:1054200011D0D7F8143128330121184600F0ECF8D8
:10543000034687F8273197F82731002B03D097F8D8
:10544000273187F82631D7F81431D3E9002300211A
:10545000396003F020037B60D7E900120B46134349
:1054600011D0D7F8143128330221184600F0CCF8B7
:10547000034687F8273197F82731002B03D097F898
:10548000273187F8263197F82631002B01D10023E8
:1054900000E00123184607F59477BD46BDE8B08FBC
:1054A0000044025880B584B000AF786039600023B2
:1054B000FB73534B9B6A03F00303032B01D10123BE
:1054C00099E04F4B1B684E4A23F080631360FBF753
:1054D00055FFB86008E0FBF751FF0246BB68D31ADE
:1054E000022B01D9032386E0454B1B6803F00063C0
:1054F000002BF0D1424B9B6A23F47C327B681B6803
:105500001B033F4913438B627B685B68013BC3F31A
:1055100008027B689B68013B5B029BB21A437B6875
:10552000DB68013B1B0403F4FE031A437B681B6921
:10553000013B1B0603F0FE43314913438B63304BA1
:10554000DB6A23F0C0027B685B692D491343CB62A1
:105550002B4BDB6A23F020027B689B6928491343AD
:10556000CB62274BDB6A264A23F01003D362244B1D
:10557000DA6B244B13407A68D269D2002049134376
:10558000CB631F4BDB6A1E4A43F01003D3623B68B8
:10559000002B06D11A4BDB6A194A43F40023D3626D
:1055A0000FE03B68012B06D1154BDB6A144A43F42C
:1055B0008013D36205E0124BDB6A114A43F40013F7
:1055C000D3620F4B1B680E4A43F080631360FBF7F6
:1055D000D5FEB86008E0FBF7D1FE0246BB68D31ADF
:1055E000022B01D9032306E0054B1B6803F000637F
:1055F000002BF0D0FB7B18461037BD4680BD00BFA6
:10560000004402580700FFFF80B584B000AF786007
:1056100039600023FB73534B9B6A03F00303032B96
:1056200001D1012399E04F4B1B684E4A23F0805370
:105630001360FBF7A3FEB86008E0FBF79FFE02468D
:10564000BB68D31A022B01D9032386E0454B1B68A4
:1056500003F00053002BF0D1424B9B6A23F07C7285
:105660007B681B681B053F4913438B627B685B6843
:10567000013BC3F308027B689B68013B5B029BB262
:105680001A437B68DB68013B1B0403F4FE031A43E7
:105690007B681B69013B1B0603F0FE433149134342
:1056A0000B64304BDB6A23F440627B685B692D49F5
:1056B0001343CB622B4BDB6A23F400727B689B693C
:1056C00028491343CB62274BDB6A264A23F48073B5
:1056D000D362244B5A6C244B13407A68D269D200AF
:1056E000204913434B641F4BDB6A1E4A43F480730B
:1056F000D3623B68002B06D11A4BDB6A194A43F48C
:105700008003D3620FE03B68012B06D1154BDB6AA7
:10571000144A43F40003D36205E0124BDB6A114ADA
:1057200043F08073D3620F4B1B680E4A43F08053E3
:105730001360FBF723FEB86008E0FBF71FFE02468C
:10574000BB68D31A022B01D9032306E0054B1B6863
:1057500003F00053002BF0D0FB7B18461037BD46FA
:1057600080BD00BF004402580700FFFF80B584B031
:1057700000AF78607B68002B01D101230FE17B68CB
:1057800000229A627B681B68874A93420FD07B682D
:105790001B68864A93420AD07B681B68844A9342FE
:1057A00005D07B68DB680F2B01D90123F7E078680F
:1057B00001F068F9F8607B681B687B4A93420CD063
:1057C0007B681B68794A934207D07B681B68784ADC
:1057D000934202D0FB68082B11D87B681B68724A81
:1057E000934209D07B681B68704A934204D07B685F
:1057F0001B686F4A934204D1FB68102B01D9012327
:10580000CDE07B6893F88130DBB2002B06D17B685A
:10581000002283F880207868FBF7B0FA7B680222C8
:1058200083F881207B681B681A687B681B6822F0FC
:1058300001021A607B681B689B6803F4F813BB6065
:105840007B689B69B3F1806F19D17B685B68B3F5A6
:10585000800F03D17B689B6B002B08D07B685B6853
:10586000002B0CD17B689B6BB3F1805F07D17B6809
:105870001B681A687B681B6842F480521A607B6858
:105880005B6803F48003002B0FD07B68DB68062B7A
:105890000BD97B681B681B6823F480717B681A6DC9
:1058A0007B681B680A431A6007E07B681B681A68FC
:1058B0007B681B6822F480721A607B68DA697B68F7
:1058C0009B6A1A43BB681A437B68DB6B42EA03019D
:1058D0007B68DA687B681B680A439A607B685A6B4E
:1058E0007B685B6A1A437B689B6B1A437B689B6986
:1058F0001A437B681B691A437B685B691A437B68A0
:105900001B6A1A437B685B681A437B68DB6C1A432B
:105910007B689B681A437B689B6C42EA03017B6847
:105920009A6D7B681B680A43DA607B685B68002BB2
:1059300013D17B681B689B6823F4C0527B681B688B
:1059400042F400629A607B681B689B6823F4C06223
:105950007B681B6842F480629A607B681B681A6DE2
:105960007B681B6822F001021A657B685B6803F4A0
:105970008003002B0AD07B681B68DB6823F00041A2
:105980007B685A6D7B681B680A43DA607B6800227B
:10599000C3F884207B68012283F881200023184605
:1059A0001037BD4680BD00BF0030014000380040C8
:1059B000003C004080B588B002AFF860B9603B6041
:1059C0001346FB80FB681B6820337B61FBF7D6FC2A
:1059D0003861FB6893F88130DBB2012B01D00223E0
:1059E000D1E1BB68002B02D0FB88002B01D1012341
:1059F000C9E1FB6893F88030012B01D10223C2E199
:105A0000FB68012283F88020FB68032283F8812051
:105A1000FB680022C3F88420FB68BA68DA65FB687B
:105A2000FA88A3F86020FB68FA88A3F86220FB6874
:105A300000225A66FB680022A3F86820FB68002257
:105A4000A3F86A20FB6800225A67FB6800221A67E5
:105A5000FB689B68B3F5C02F08D1FB681B681A6808
:105A6000FB681B6842F400621A6009E0FB681B686F
:105A7000DB6823F4C022FB681B6842F40032DA6062
:105A8000FB681B685A68964B1340F988FA681268DD
:105A90000B435360FB681B681A68FB681B6842F085
:105AA00001021A60FB685B68B3F5800F07D1FB68E1
:105AB0001B681A68FB681B6842F400721A60FB6876
:105AC000DB680F2B47D93FE0FB681B685B6903F07D
:105AD0000203022B14D1FB68DA6DFB681B681268A5
