:020000040800F2
:1000000000000824E5200008AD150008B51500081B
:10001000BD150008C5150008CD150008000000003A
:10002000000000000000000000000000D15B01089B
:10003000D515000800000000215E0108B136010856
:100040003921000839210008392100083921000828
:100050003921000839210008392100083921000818
:10006000392100083921000839210008E515000868
:10007000F91500080D1600082116000835160008AD
:1000800049160008392100083921000839210008E3
:1000900039210008392100083921000839210008D8
:1000A00039210008392100083921000839210008C8
:1000B00039210008392100083921000839210008B8
:1000C00039210008392100083921000839210008A8
:1000D000392100085D16000839210008392100087F
:1000E00039210008392100080000000039210008EA
:1000F0003921000839210008392100083921000878
:100100003921000839210008392100083921000867
:10011000392100083921000871160008392100082A
:100120003921000839210008392100083921000847
:100130003921000839210008392100083921000837
:1001400000000000000000000000000000000000AF
:100150003921000839210008392100083921000817
:100160003921000839210008392100083921000807
:100170003921000839210008392100080000000059
:1001800039210008392100083921000839210008E7
:1001900039210008392100083921000839210008D7
:1001A00039210008392100083921000839210008C7
:1001B00039210008392100083921000839210008B7
:1001C00039210008392100083921000839210008A7
:1001D0003921000885160008392100083921000856
:1001E0003921000839210008392100083921000887
:1001F0003921000839210008392100083921000877
:100200003921000839210008392100083921000866
:100210003921000839210008392100083921000856
:1002200039210008392100083921000800000000A8
:100230003921000839210008000000003921000898
:100240003921000839210008392100083921000826
:100250003921000839210008392100083921000816
:100260003921000839210008392100083921000806
:100270003921000839210008392100080000000058
:100280003921000839210008392100080000000048
:08029000000000003921000804
:1002A00010B5054C237833B9044B13B10448AFF3B0
:1002B00000800123237010BDD00200240000000044
:1002C00044B9010808B5034B1BB103490348AFF318
:1002D000008008BD00000000D402002444B90108D9
:1002E00001F0FF01102A2BDB10F0070F08D010F8E7
:1002F000013B013A8B422DD010F0070F42B3F6D1EB
:10030000F0B441EA012141EA014122F007047FF003
:1003100000070023F0E80256083C85EA010586EA5A
:10032000010685FA47F5A3FA87F586FA47F6A5FA96
:1003300087F68EB9EED1F0BC01F0FF0102F00702A2
:1003400032B110F8013B013A83EA010313B1F8D14D
:100350000020704701387047002D06BF354603382E
:10036000073815F0010F07D1013015F4807F02BF67
:10037000013015F4C03F0130F0BC0138704700BFB8
:10038000034613F8012B002AFBD1181A01387047D5
:1003900081F0004102E000BF83F0004330B54FEA36
:1003A00041044FEA430594EA050F08BF90EA020FA3
:1003B0001FBF54EA000C55EA020C7FEA645C7FEA36
:1003C000655C00F0E2804FEA5454D4EB5555B8BF59
:1003D0006D420CDD2C4480EA020281EA030382EACA
:1003E000000083EA010180EA020281EA0303362D5C
:1003F00088BF30BD11F0004F4FEA01314FF4801C2F
:100400004CEA113102D0404261EB410113F0004F40
:100410004FEA03334CEA133302D0524263EB4303F7
:1004200094EA050F00F0A780A4F10104D5F1200E95
:100430000DDB02FA0EFC22FA05F2801841F10001F0
:1004400003FA0EF2801843FA05F359410EE0A5F1C4
:1004500020050EF1200E012A03FA0EFC28BF4CF0F5
:10046000020C43FA05F3C01851EBE37101F00045AB
:1004700007D54FF0000EDCF1000C7EEB00006EEBB8
:100480000101B1F5801F1BD3B1F5001F0CD3490842
:100490005FEA30004FEA3C0C04F101044FEA445299
:1004A00012F5800F80F09A80BCF1004F08BF5FEA20
:1004B000500C50F1000041EB045141EA050130BD00
:1004C0005FEA4C0C404141EB0101013C28BFB1F512
:1004D000801FE9D291F0000F04BF01460020B1FA5D
:1004E00081F308BF2033A3F10B03B3F120020CDA30
:1004F0000C3208DD02F1140CC2F10C0201FA0CF00E
:1005000021FA02F10CE002F11402D8BFC2F1200C72
:1005100001FA02F120FA0CFCDCBF41EA0C01904028
:10052000E41AA2BF01EB0451294330BD6FEA040471
:100530001F3C1CDA0C340EDC04F11404C4F120025C
:1005400020FA04F001FA02F340EA030021FA04F36E
:1005500045EA030130BDC4F10C04C4F1200220FAC5
:1005600002F001FA04F340EA0300294630BD21FA03
:1005700004F0294630BD94F0000F83F4801306BFC9
:1005800081F480110134013D4EE77FEA645C18BFBD
:100590007FEA655C29D094EA050F08BF90EA020F54
:1005A00005D054EA000C04BF1946104630BD91EA4C
:1005B000030F1EBF0021002030BD5FEA545C05D14F
:1005C0004000494128BF41F0004130BD14F580048E
:1005D0003CBF01F5801130BD01F0004545F0FE4102
:1005E00041F470014FF0000030BD7FEA645C1ABF37
:1005F000194610467FEA655C1CBF0B46024650EA6E
:10060000013406BF52EA033591EA030F41F4002199
:1006100030BD00BF90F0000F04BF0021704730B51F
:100620004FF4806404F132044FF000054FF00001F4
:1006300050E700BF90F0000F04BF0021704730B5B5
:100640004FF4806404F1320410F0004548BF40428A
:100650004FF000013EE700BF42004FEAE2014FEADF
:1006600031014FEA02701FBF12F07F4393F07F4FBA
:1006700081F06051704732F07F4208BF704793F0BD
:100680007F4F04BF41F40021704730B54FF46074D0
:1006900001F0004521F000411CE700BF50EA0102D3
:1006A00008BF704730B54FF000050AE050EA01027C
:1006B00008BF704730B511F0004502D5404261EBEC
:1006C00041014FF4806404F132045FEA915C3FF42D
:1006D000D8AE4FF003025FEADC0C18BF03325FEACA
:1006E000DC0C18BF033202EBDC02C2F1200300FA7B
:1006F00003FC20FA02F001FA03FE40EA0E0021FAA0
:1007000002F11444BDE600BF53B94AB9002908BF3D
:1007100000281CBF4FF0FF314FF0FF3000F0C0B990
:10072000ADF1080C6DE904CE00F03EF8DDF804E010
:10073000DDE9022304B0704708B502460B4643ECDE
:10074000172BB5EEC07BF1EE10FA03D4BDE80840DC
:1007500000F00AB8B1EE477B51EC170B00F004F83B
:10076000404261EB410108BD9FED0B6B41EC170B63
:100770009FED0B5B27EE066BBCEEC66BB8EE464BEF
:10078000A4EE457BFCEEC77B16EE101A17EE900A1E
:10079000704700BFAFF30080000000000000F03D94
:1007A000000000000000F0412DE9F047089D8E4652
:1007B00004468846002B4AD18A42174662D9B2FACB
:1007C00082F64EB1C6F1200301FA06F820FA03F3CF
:1007D000B74043EA0808B4404FEA174E1FFA87FCB7
:1007E000B8FBFEF1230C0EFB118843EA084301FB22
:1007F0000CF29A4209D9FB1801F1FF3080F0EA802F
:100800009A4240F2E78002393B449A1AA3B2B2FB03
:10081000FEF00EFB102243EA024300FB0CFC9C4559
:1008200009D9FB1800F1FF3280F0D6809C4540F2D8
:10083000D3803B44023840EA0140A3EB0C03002183
:100840001DB1F3400022C5E90032BDE8F0878B42BC
:1008500005D90DB1C5E9000100210846F5E7B3FA55
:1008600083F1002946D1734502D3824200F205810B
:10087000841A6EEB030201209046002DE5D0C5E9F5
:100880000048E2E7002A00F09080B2FA82F6002EDB
:1008900040F0A4808A1A030C4FEA174E80B2BCB213
:1008A0000121B2FBFEFC0EFB1C2243EA024304FBC7
:1008B0000CF29A4207D9FB180CF1FF3802D29A4287
:1008C00000F2E080C4469B1AB3FBFEF20EFB12332B
:1008D00040EA034302FB04F49C4207D9FB1802F1EF
:1008E000FF3002D29C4200F2CA8002461B1B42EA41
:1008F0000C40A5E7C1F120068B4022FA06F71F4302
:100900000EFA01F420FA06F32EFA06FE4FEA174912
:10091000234300FA01F81FFA87FCBEFBF9F01C0C18
:1009200009FB10EE44EA0E4400FB0CFEA64502FA59
:1009300001F209D93C1900F1FF3A80F09C80A645EC
:1009400040F2998002383C44A4EB0E041FFA83FE67
:10095000B4FBF9F309FB13444EEA044403FB0CFC1B
:10096000A44508D93C1903F1FF3E80F08280A445DC
:100970007FD9023B3C4443EA0040A4EB0C04A0FBBB
:1009800002EC64457346E14662D35FD05DB1B8EBDB
:10099000030264EB090404FA06F622FA01F31E438B
:1009A000CC40C5E9006400214FE7B1FBF2FC010C2B
:1009B00041EA0E4180B240EA01423B4638463C469D
:1009C000B846BE462026B1FBF7F1A2EB080241EA89
:1009D0000C4166E7014618E710462CE7C6F12002F5
:1009E0002EFA02F3B740B14020FA02F24FEA174E56
:1009F0000A43B3FBFEF8BCB20EFB1833110C41EAFC
:100A0000034108FB04F9B04089454FEA104380B226
:100A10003ED9791808F1FF3C01D289451FD8A1EBD6
:100A20000901B1FBFEF909FB04F80EFB191192B2A2
:100A300042EA0142424529D2BA1809F1FF31C4D233
:100A40004245C2D2A9F102013A44BEE7F0459DD227
:100A5000BEEB02036CEB070C0138E14696E7A7EB0F
:100A600009094944A8F1020CB1FBFEF909FB04F89D
:100A7000DBE773467FE7504666E70846FDE63B4402
:100A8000023A33E7ACF1020C3B441CE749469CE7D1
:100A9000A1EB0901C446B1FBFEF909FB04F8C4E768
:100AA000704700BF80B582B000AF214BD3F8D8307B
:100AB0001F4A43F00103C2F8D8301D4BD3F8D83099
:100AC00003F001037B607B68002205210B2001F00D
:100AD0008FFC0B2001F0A6FC002205210C2001F068
:100AE00087FC0C2001F09EFC002205210D2001F066
:100AF0007FFC0D2001F096FC002205210E2001F064
:100B000077FC0E2001F08EFC002205210F2001F061
:100B10006FFC0F2001F086FC00220521102001F05F
:100B200067FC102001F07EFC00BF0837BD4680BD89
:100B30000044025880B500AF0C4A00210C4812F066
:100B400030FE03460B4A13600B4A00210B4812F09B
:100B500028FE03460A4A13600A4A00210A4812F096
:100B600020FE0346094A136000BF80BD7CBA01081D
:100B7000910B000834030024A0BA0108A50B00085B
:100B800038030024C4BA01082D0E00083C030024D9
:100B900080B582B000AF786015F0F6FB012012F04E
:100BA00093FEFBE780B58CB000AF78604FF4FA702D
:100BB00012F08AFE8C4810F067FA10F02BFB9FEDC4
:100BC0008B0A8B480FF069FC0FF04EF910F0D6FC41
:100BD00010F040F8874B01229A7012F0CDFDF862B8
:100BE0000123BB62844B7B62844810F02BFC834B57
:100BF000D3ED067A814B93ED077A804BD3ED086AEB
:100C00007E4B93ED036A7D4BD3ED045A7B4B93ED02
:100C1000055A97ED093AF0EE452AB0EE652AF0EE56
:100C2000461AB0EE661AF0EE470AB0EE670A704850
:100C30000FF052FC6F4B1B78DBB2022B40F0AF8001
:100C40006F4B5B8807EE903AF8EE677A9FED6D7A0E
:100C500037EEC77ADFED6C6AC7EE267A9FED6B7AC6
:100C600067EE877AC7ED087A654B9B8807EE903A66
:100C7000F8EE677A9FED637A37EEC77ADFED626A46
:100C8000C7EE267A9FED617A67EE877AC7ED077A1D
:100C90005B4BDB8807EE903AF8EE677A9FED597A66
:100CA00037EEC77ADFED586AC7EE267A9FED587A9D
:100CB00067EE877AC7ED067A514B1B88A3F57A73E6
:100CC0009AB24B4BD3ED057A494B93ED067A4B4BD9
:100CD000D3ED086A07F1080397ED093AD7ED062A24
:100CE00097ED072AD7ED081AB0EE661AF0EE470A1C
:100CF000B0EE670A114618460FF0E6FF3B891A4628
:100D000040F2CF7302FB03F3424A82FB03129211BB
:100D1000DB17D31A9BB23033FB827B891A4640F231
:100D2000CF7302FB03F33B4A82FB03129211DB17E2
:100D3000D31A9BB23033BB82BB891A4640F2CF73C1
:100D400002FB03F3334A82FB03129211DB17D31A1F
:100D50009BB230337B82FB891A4640F2CF7302FB91
:100D600003F32C4A82FB03129211DB17D31A9BB2B6
:100D700030333B82FB8A194600200FF097F8BB8A7C
:100D8000194601200FF092F87B8A194602200FF0D5
:100D90008DF83B8A194603200FF088F80AE00FF01F
:100DA00000F91D4810F0ACF81C4810F0A9F81C48D8
:100DB00010F0A6F81B4B1B8801339AB2194B1A800E
:100DC000184B1B88B3F5FA7F06D31021164804F0A0
:100DD000C0FB144B00221A80FA6ABB6A1344FB6200
:100DE000F86A12F08CFDFFE644030024CDCCCC3D24
:100DF00014030024AC0800246F12833AEC02002490
:100E00001C0800240080BB440000FA430000344268
:100E100000003443D34D62103008002450080024F1
:100E200070080024400300240010025880B582B0EE
:100E300000AF78600FF0BCF80FF0D0F80FF07CFA3C
:100E400010F0AEFB0E4BD3ED057ABDEEE77A0C4BFE
:100E5000D3ED067AFDEEE76A0A4BD3ED087AFDEE94
:100E6000E77A17EE903A16EE902A17EE101A064817
:100E700017F07CF9142012F027FD00BFDCE700BF5B
:100E800014030024EC0200248CB9010880B58AB058
:100E900000AF07F1140300221A605A609A60DA600A
:100EA0001A61524BD3F8E030504A43F01003C2F8B5
:100EB000E0304E4BD3F8E03003F010033B613B6968
:100EC0004A4BD3F8E030494A43F08003C2F8E0309F
:100ED000464BD3F8E03003F08003FB60FB68434BE4
:100EE000D3F8E030414A43F00403C2F8E0303F4B0E
:100EF000D3F8E03003F00403BB60BB683B4BD3F88E
:100F0000E0303A4A43F00103C2F8E030374BD3F8FF
:100F1000E03003F001037B607B68344BD3F8E030B2
:100F2000324A43F00203C2F8E030304BD3F8E030ED
:100F300003F002033B603B6800224FF401612C4840
:100F400004F0EEFA002224212A4804F0E9FA0022F3
:100F50001021294804F0E4FA00224FF400612748E8
:100F600004F0DEFA4FF401637B610123BB610023CF
:100F7000FB6100233B6207F1140319461C4804F08F
:100F80001FF924237B610123BB610023FB61002344
:100F90003B6207F114031946164804F011F91023B7
:100FA0007B610123BB610023FB6100233B6207F1EE
:100FB00014031946104804F003F94FF400637B61F1
:100FC0000123BB610023FB6100233B6207F1140393
:100FD00019460A4804F0F4F800214FF0806001F04F
:100FE00039F900BF2837BD4680BD00BF0044025814
:100FF000001002580008025800000258000402586D
:1010000080B584B000AF00F042F9494B5B6903F44E
:101010000033002B1BD1BFF34F8F00BFBFF36F8F87
:1010200000BF434B0022C3F85022BFF34F8F00BFD5
:10103000BFF36F8F00BF3E4B5B693D4A43F4003303
:101040005361BFF34F8F00BFBFF36F8F00E000BF4E
:10105000374B5B6903F48033002B38D1344B0022CB
:10106000C3F88420BFF34F8F00BF314BD3F88030DB
:10107000FB60FB685B0BC3F30E03BB60FB68DB0824
:10108000C3F309037B60BB685A0143F6E073134066
:101090007A68920726491343C1F860327B685A1E6A
:1010A0007A60002BEFD1BB685A1EBA60002BE5D1E5
:1010B000BFF34F8F00BF1E4B5B691D4A43F4803363
:1010C0005361BFF34F8F00BFBFF36F8F00E000BFCE
:1010D00001F034F800F034F8FFF7D8FEFFF7E2FC37
:1010E00000F01AF900F0DCFE00F038FC00F0B8FC6B
:1010F000012204210F4804F013FA012220210D4897
:1011000004F00EFA012210210B4804F009FA012222
:101110004FF40061094804F003FA642001F06AF812
:1011200012F0E0FAFFF706FD12F000FB00BFFDE74A
:1011300000ED00E0000802580000025800100258BC
:1011400080B59CB000AF07F124034C220021184663
:1011500017F076F93B1D20220021184617F070F990
:10116000022005F0B1FC00233B60324B9B69314A01
:1011700043F4404393612F4B9B6903F440433B602E
:101180002D4BDB6A2C4A43F00103D3622A4BDB6A06
:1011900003F001033B603B6800BF264B9B6903F4EF
:1011A0000053B3F5005FF8D122237B6201233B6338
:1011B00040237B630123FB630223BB640023FB64A6
:1011C00004233B653C237B650223BB650223FB654F
:1011D00002233B660C237B660023BB660023FB6671
:1011E00007F12403184605F0B9FC0346002B01D093
:1011F00000F08CF83F237B600323BB600023FB607F
:1012000008233B6140237B614023BB614FF4806333
:10121000FB6140233B623B1D0421184606F0F8F8B1
:101220000346002B01D000F071F800BF7037BD46B7
:1012300080BD00BF004802580004005880B586B049
:1012400000AFF860B9607A607B689BB21946B868F5
:1012500015F05AF90346FB7564233B610AE07B688D
:101260009BB21946B86815F04FF90346FB7501208B
:1012700012F02AFBFB7D012B04D13B695A1E3A6117
:10128000002BECD17B6818461837BD4680BD80B571
:1012900084B000AF3B4600221A605A609A60DA6060
:1012A00001F0CEF801233B7000237B704FF04053D8
:1012B0007B6009233B7200237B720123BB720323F3
:1012C000FB7201233B7301237B730023BB73002359
:1012D000FB733B46184601F0EBF8042001F0C8F818
:1012E00000BF1037BD4680BD80B582B000AF7860CA
:1012F0007B681B68044A934201D100F05BFF00BF8A
:101300000837BD4680BD00BF0010004080B400AF6C
:1013100072B600BF00BFFDE780B500AF284B294A79
:101320001A60274B4FF480025A60254B00229A60C6
:10133000234B0722DA60224B4FF000721A61204BD8
:101340004FF080725A611E4B4FF080629A611C4BC5
:101350004FF00052DA611A4B00221A62184B002239
:101360005A62174B00229A62154B0022DA62144B24
:1013700000225A63124B00229A63114B0022DA6357
:101380000F4B00221A640E4B00225A640C4B0022B1
:101390009A640B4B0022DA64094B00221A65084B51
:1013A00000225A65064B00229A65054808F02AFA81
:1013B0000346002B01D0FFF7A9FF00BF80BD00BF8F
:1013C000440300240034014080B5BAB000AF786017
:1013D00007F1D40300221A605A609A60DA601A6139
:1013E00007F11003C0220021184617F029F87B6886
:1013F0001B68264A934245D14FF400524FF0000338
:10140000C7E9042300237B6707F11003184606F0A1
:10141000CDFB0346002B01D0FFF778FF1C4BD3F820
:10142000F0301B4A43F40053C2F8F030184BD3F8A5
:10143000F03003F40053FB60FB68154BD3F8E03049
:10144000134A43F01003C2F8E030114BD3F8E030F8
:1014500003F01003BB60BB684FF4E043C7F8D4301F
:101460000223C7F8D8300023C7F8DC300023C7F8C0
:10147000E0300523C7F8E43007F1D40319460548E6
:1014800003F09EFE00BFE837BD4680BD003401403A
:10149000004402580010025880B582B000AF0C4BD7
:1014A000D3F8F4300A4A43F00203C2F8F430084B90
:1014B000D3F8F43003F002037B607B6800220F2135
:1014C0006FF0010000F094FF00BF0837BD4680BDFB
:1014D0000044025880B590B000AF78607B680F2B55
:1014E00027D800227968362000F082FF362000F0ED
:1014F00099FF294A7B681360284BD3F8E830274AC4
:1015000043F01003C2F8E830244BD3F8E83003F07E
:101510001003FB60FB6807F1100207F1140311468A
:10152000184606F001FBBB6ABB63BB6B002B06D100
:1015300001E001232BE006F0CBFAF86304E006F0AB
:10154000C7FA03465B00FB63FB6B154AA2FB032350
:101550009B0C013B7B63134B134A1A60114B40F207
:10156000E732DA600F4A7B6B53600E4B00221A6140
:101570000C4B00229A600B4809F0EBFA0346002B53
:1015800004D1084809F03CFB034600E0012318465B
:101590004037BD4680BD00BF08000024004402580B
:1015A00083DE1B43CC0300240010004080B400AF56
:1015B00000BFFDE780B400AF00BFFDE780B400AF1F
:1015C00000BFFDE780B400AF00BFFDE780B400AF0F
:1015D00000BFFDE780B400AF00BFBD465DF8047BEF
:1015E0007047000080B500AF024802F0CBFA00BFA0
:1015F00080BD00BF2807002480B500AF024802F07C
:10160000C1FA00BF80BD00BFA007002480B500AFB5
:10161000024802F0B7FA00BF80BD00BFB404002446
:1016200080B500AF024802F0ADFA00BF80BD00BF38
:101630002C05002480B500AF024802F0A3FA00BFD9
:1016400080BD00BFA405002480B500AF024802F0B1
:1016500099FA00BF80BD00BF1C06002480B500AF12
:1016600002480BF07DF900BF80BD00BF9406002446
:1016700080B500AF024809F0BBFE00BF80BD00BFCF
:10168000CC03002480B500AF024804F0BDF800BFD1
:1016900080BD00BFDC30012480B400AF01231846B8
:1016A000BD465DF8047B704780B582B000AF7860BE
:1016B000396016F017FF034616221A604FF0FF3309
:1016C00018460837BD4680BD80B582B000AF78604F
:1016D0004FF0FF317868FFF7E7FF00BFFDE780B507
:1016E00086B000AFF860B9607A6000237B610AE0E1
:1016F000AFF300800146BB685A1CBA60CAB21A70C8
:101700007B6901337B617A697B689A42F0DB7B6895
:1017100018461837BD4680BD80B483B000AF7860EE
:101720004FF0FF3318460C37BD465DF8047B704719
:1017300080B483B000AF786039603B684FF40052EA
:101740005A60002318460C37BD465DF8047B70478D
:1017500080B483B000AF7860012318460C37BD46D3
:101760005DF8047B704780B485B000AFF860B96065
:101770007A60002318461437BD465DF8047B704735
:1017800080B586B000AF7860144A154BD31A7B61E0
:101790007B693B61134B1B68002B02D1114B124A32
:1017A0001A60104B1A687B6813443A699A4207D250
:1017B00016F098FE03460C221A604FF0FF3309E042
:1017C000084B1B68FB60074B1A687B681344054A8B
:1017D0001360FB6818461837BD4680BD000008241A
:1017E00000040000180400243039012480B400AF44
:1017F000434BD3F88830424A43F47003C2F8883030
:10180000404B1B6803F00F03062B07D83D4B1B68AA
:1018100023F00F033B4A43F0070313603A4B1B6866
:10182000394A43F001031360374B00221A61364BEB
:101830001A683549354B13400B60324B1B6803F077
:101840000803002B07D02F4B1B6823F00F032D4AF2
:1018500043F0070313602C4B00229A612A4B0022AD
:10186000DA61294B00221A62274B294A9A62264BD9
:10187000284ADA62244B284A1A63234B00225A630F
:10188000214B254A9A63204B0022DA631E4B224AE1
:101890001A641D4B00225A641B4B1B681A4A23F41E
:1018A00080231360184B00221A661C4B1A681C4BCD
:1018B0001340B3F1005F02D21A4B01221A60124B9F
:1018C000D3F8D43003F48053002B13D10E4BD3F84C
:1018D000D4300D4A43F48053C2F8D430124B43F253
:1018E000D2021A60084BD3F8D430074A23F480534D
:1018F000C2F8D43000BFBD465DF8047B704700BF1E
:1019000000ED00E000200052004402587FEDF6EAAE
:10191000000202020000FF01800201010010005CD1
:101920000000FFFF088100510040005280B400AF6A
:10193000094BDB68084A43F00203D36000BF064B43
:101940005B6803F40053002BF9D000BF00BFBD4615
:101950005DF8047B704700BF0048025880B58EB028
:1019600000AF07F1280300221A605A609A60DA601B
:1019700007F11C0300221A605A609A603B4600225D
:101980001A605A609A60DA601A615A619A61324B41
:10199000324A1A60304B00225A602F4B00229A6064
:1019A0002D4B40F21F32DA602B4B00221A612A4B7A
:1019B00000229A61284809F0CCF80346002B01D098
:1019C000FFF7A4FC4FF48053BB6207F128031946CC
:1019D000214809F029FF0346002B01D0FFF796FCB0
:1019E0001D4809F085F90346002B01D0FFF78EFC56
:1019F0000023FB6100237B6207F11C031946164894
:101A00000AF052FD0346002B01D0FFF77FFC602354
:101A10003B6000237B600023BB6000233B613B46AF
:101A2000082219460C4809F0EBFD0346002B01D0B3
:101A3000FFF76CFC3B460C221946074809F0E0FD15
:101A40000346002B01D0FFF761FC034800F0C4F906
:101A500000BF3837BD4680BD1C0400240004004090
:101A600080B59AB000AF07F1580300221A605A609F
:101A70009A60DA6007F14C0300221A605A609A609B
:101A800007F1300300221A605A609A60DA601A6126
:101A90005A619A613B1D2C220021184616F0D0FC99
:101AA000494B4A4A1A60484B00225A60464B002272
:101AB0009A60454B40F21F32DA60434B00221A61B4
:101AC000414B00225A61404B00229A613E4809F086
:101AD00040F80346002B01D0FFF718FC4FF4805369
:101AE000BB6507F158031946374809F09DFE0346C8
:101AF000002B01D0FFF70AFC334809F0F9F8034640
:101B0000002B01D0FFF702FC0023FB6400233B65A0
:101B100000237B6507F14C0319462B480AF0C4FCEF
:101B20000346002B01D0FFF7F1FB60233B6300234A
:101B30007B630023BB630023FB6300233B64002320
:101B40007B640023BB6407F13003082219461E485A
:101B500009F056FD0346002B01D0FFF7D7FB07F134
:101B600030030C221946184809F04AFD0346002BA1
:101B700001D0FFF7CBFB00237B600023BB60002379
:101B8000FB6000233B6100237B614FF40053BB618A
:101B90000023FB6100233B624FF000737B62002354
:101BA000BB620023FB623B1D194607480AF00AFD91
:101BB0000346002B01D0FFF7A9FB034800F00CF906
:101BC00000BF6837BD4680BD6804002400040140A2
:101BD00080B584B000AF78607B681B68734A93421D
:101BE0006DD1734BD3F8E830714A43F00203C2F869
:101BF000E8306F4BD3F8E83003F00203FB60FB687A
:101C00006C4B6D4A1A606B4B19225A60694B40222B
:101C10009A60684B0022DA60664B4FF480621A616A
:101C2000644B4FF480525A61624B4FF480429A6188
:101C3000604B0022DA615F4B00221A625D4B00228A
:101C40005A625C4800F074FC0346002B01D0FFF799
:101C50005DFB7B68574ADA62564A7B689363574B51
:101C6000574A1A60554B1A225A60544B40229A60C8
:101C7000524B0022DA60514B4FF480621A614F4B95
:101C80004FF480525A614D4B4FF480429A614B4B56
:101C90000022DA61494B00221A62484B00225A6244
:101CA000464800F045FC0346002B01D0FFF72EFB11
:101CB0007B68424A1A63414A7B68936371E07B68A0
:101CC0001B68404A93426CD1394BD3F8F030384A04
:101CD00043F00203C2F8F030354BD3F8F03003F094
:101CE0000203BB60BB68384B384A1A60364B31225E
:101CF0005A60354B40229A60334B0022DA60324BF7
:101D00004FF480621A61304B4FF480525A612E4B6F
:101D10004FF480429A612C4B0022DA612A4B002258
:101D20001A62294B00225A62274800F001FC034640
:101D3000002B01D0FFF7EAFA7B68234ADA62224AD5
:101D40007B689363224B234A1A60214B32225A60EC
:101D50001F4B40229A601E4B0022DA601C4B4FF44E
:101D600080621A611A4B4FF480525A61184B4FF43B
:101D700080429A61164B0022DA61154B00221A62EA
:101D8000134B00225A62124800F0D2FB0346002B8C
:101D900001D0FFF7BBFA7B680D4A1A630C4A7B68D7
:101DA000936300BF1037BD4680BD00BF00040040F4
:101DB00000440258B4040024400002402C050024D2
:101DC0005800024000040140A405002470000240B5
:101DD0001C0600248800024080B58AB000AF7860FD
:101DE00007F1140300221A605A609A60DA601A61DF
:101DF0007B681B68254A93421FD1254BD3F8E030FE
:101E0000234A43F00203C2F8E030214BD3F8E0301C
:101E100003F002033B613B6903237B610223BB6147
:101E20000023FB6100233B6202237B6207F1140362
:101E30001946184803F0C4F924E07B681B68164A69
:101E400093421FD1124BD3F8E030114A43F0040300
:101E5000C2F8E0300E4BD3F8E03003F00403FB602F
:101E6000FB684FF440737B610223BB610023FB617D
:101E700000233B6203237B6207F1140319460748E2
:101E800003F09EF900BF2837BD4680BD0004004026
:101E9000004402580004025800040140000802589F
:101EA00080B500AF224B234A1A60214B4FF4E13238
:101EB0005A601F4B00229A601D4B0022DA601C4BB7
:101EC00000221A611A4B0C225A61194B00229A61A6
:101ED000174B0022DA61164B00221A62144B0022C3
:101EE0005A62134B00229A6211480AF007FC03461B
:101EF000002B01D0FFF70AFA00210D480CF027FB58
:101F00000346002B01D0FFF701FA002108480CF02E
:101F10005CFB0346002B01D0FFF7F8F904480CF0F6
:101F2000DDFA0346002B01D0FFF7F0F900BF80BDBA
:101F3000940600240010014080B5BAB000AF78606C
:101F400007F1D40300221A605A609A60DA601A61BD
:101F500007F11003C0220021184616F071FA7B68C1
:101F60001B68594A934240F0AB804FF001024FF09A
:101F70000003C7E904230023C7F88C3007F11003DE
:101F8000184605F013FE0346002B01D0FFF7BEF9FB
:101F90004E4BD3F8F0304D4A43F01003C2F8F03006
:101FA0004A4BD3F8F03003F01003FB60FB68474B5B
:101FB000D3F8E030454A43F00103C2F8E030434B28
:101FC000D3F8E03003F00103BB60BB684FF4C0639B
:101FD000C7F8D4300223C7F8D8300023C7F8DC3064
:101FE0000023C7F8E0300723C7F8E43007F1D40333
:101FF0001946374803F0E4F8364B374A1A60354B38
:1020000029225A60334B00229A60324B0022DA6058
:10201000304B4FF480621A612E4B00225A612D4BD7
:1020200000229A612B4B4FF48072DA61294B002217
:102030001A62284B00225A62264800F079FA0346B9
:10204000002B01D0FFF762F97B68224AC3F8802099
:10205000204A7B689363214B214A1A601F4B2A2236
:102060005A601E4B40229A601C4B0022DA601B4BC8
:102070004FF480621A61194B00225A61174B0022FB
:102080009A61164B0022DA61144B00221A62134B3C
:1020900000225A62114800F04BFA0346002B01D08F
:1020A000FFF734F97B680D4ADA670C4A7B68936363
:1020B00000220521252000F09BF9252000F0B2F92F
:1020C00000BFE837BD4680BD001001400044025803
:1020D000000002582807002410000240A007002436
:1020E00028000240DFF838D0FFF720FCFFF77EFB26
:1020F0000C480D490D4A002302E0D458C450043363
:10210000C4188C42F9D30A4A0A4C002301E0136038
:102110000432A242FBD316F0EBF9FEF771FF7047D1
:102120000000082400000024D00200249CBF010805
:10213000D00200242C390124FEE7000080B582B0D3
:1021400000AF032000F049F905F018FB0246154BDB
:102150009B691B0A03F00F031349CB5C03F01F03B9
:1021600022FA03F37B600F4B9B6903F00F030E4AC7
:10217000D35C03F01F037A6822FA03F30B4A13605F
:102180000B4A7B6813600F20FFF7A4F90346002B6E
:1021900001D0012302E0FFF77FF90023184608373A
:1021A000BD4680BD00440258E8BA0108040000247E
:1021B0000000002480B400AF064B1B781A46064B83
:1021C0001B681344044A136000BFBD465DF8047BDE
:1021D000704700BF0C0000241808002480B400AF32
:1021E000034B1B681846BD465DF8047B704700BF73
:1021F0001808002480B584B000AF7860FFF7EEFFC8
:10220000B8607B68FB60FB68B3F1FF3F05D00A4B09
:102210001B781A46FB681344FB6000BFFFF7DEFF24
:102220000246BB68D31AFA689A42F7D800BF00BFCB
:102230001037BD4680BD00BF0C00002480B400AF45
:10224000034B1B681B0C1846BD465DF8047B7047AA
:102250000010005C80B483B000AF78603960074B39
:102260005A687B68DB431A4004493B6813434B6060
:1022700000BF0C37BD465DF8047B70470004005872
:1022800080B485B000AF78607B6803F00703FB6023
:102290000B4BDB68BB60BA684FF6FF031340BB60B3
:1022A000FB681A02BB681A43064B1343BB60044A1F
:1022B000BB68D36000BF1437BD465DF8047B704730
:1022C00000ED00E00000FA0580B400AF044BDB68CD
:1022D0001B0A03F007031846BD465DF8047B7047F0
:1022E00000ED00E080B483B000AF0346FB80B7F997
:1022F0000630002B0BDBFB8803F01F020749B7F900
:1023000006305B09012000FA02F241F8232000BFE9
:102310000C37BD465DF8047B704700BF00E100E06C
:1023200080B483B000AF03463960FB80B7F9063054
:10233000002B0ADB3B68DAB20C49B7F90630120110
:10234000D2B20B4483F800230AE03B68DAB20849B2
:10235000FB8803F00F03043B1201D2B20B441A7640
:1023600000BF0C37BD465DF8047B704700E100E01C
:1023700000ED00E080B489B000AFF860B9607A6029
:10238000FB6803F00703FB61FB69C3F10703042B40
:1023900028BF0423BB61FB690433062B02D9FB6908
:1023A000033B00E000237B614FF0FF32BB6902FA80
:1023B00003F3DA43BB681A407B699A404FF0FF3160
:1023C0007B6901FA03F3D9437B680B40134318463A
:1023D0002437BD465DF8047B704780B582B000AFFE
:1023E00078607868FFF74CFF00BF0837BD4680BDB6
:1023F00080B586B000AF0346B9607A60FB81FFF715
:1024000063FF78617A68B9687869FFF7B3FF0246BD
:10241000B7F90E3011461846FFF782FF00BF183794
:10242000BD4680BD80B582B000AF0346FB80B7F9E2
:1024300006301846FFF756FF00BF0837BD4680BD7F
:1024400080B400AFBFF35F8F00BF074B5B6A064AE3
:1024500023F480335362054B00225A6000BFBD460F
:102460005DF8047B704700BF00ED00E090ED00E0F8
:1024700080B483B000AF78600B4A7B6843F00103FF
:1024800053600A4B5B6A094A43F480335362BFF3DB
:102490004F8F00BFBFF36F8F00BF00BF0C37BD462B
:1024A0005DF8047B704700BF90ED00E000ED00E0B8
:1024B00080B483B000AF78607B685A781B4B9A6019
:1024C0001A4B1B69194A23F001031361174A7B68F1
:1024D0005B68D3607B681B7B1A077B68DB7A1B0613
:1024E0001A437B689B7ADB041A437B685B7B9B0403
:1024F0001A437B689B7B5B041A437B68DB7B1B0472
:102500001A437B685B7A1B021A437B681B7A5B0069
:1025100013437A6812781146044A0B43136100BFD3
:102520000C37BD465DF8047B704700BF90ED00E0BE
:1025300080B586B000AF7860FFF750FE38617B68E9
:10254000002B01D1012316E37B681B68664A934286
:102550004AD07B681B68654A934245D07B681B68FC
:10256000634A934240D07B681B68624A93423BD0E7
:102570007B681B68604A934236D07B681B685F4A61
:10258000934231D07B681B685D4A93422CD07B68B4
:102590001B685C4A934227D07B681B685A4A934267
:1025A00022D07B681B68594A93421DD07B681B6808
:1025B000574A934218D07B681B68564A934213D0FF
:1025C0007B681B68544A93420ED07B681B68534A51
:1025D000934209D07B681B68514A934204D07B68C0
:1025E0001B68504A934201D1012300E00023002BD5
:1025F00000F03B817B68022283F835207B68002253
:1026000083F834207B681B68374A93424AD07B6842
:102610001B68364A934245D07B681B68344A934214
:1026200040D07B681B68334A93423BD07B681B6871
:10263000314A934236D07B681B68304A934231D08E
:102640007B681B682E4A93422CD07B681B682D4AFE
:10265000934227D07B681B682B4A934222D07B6829
:102660001B682A4A93421DD07B681B68284A934204
:1026700018D07B681B68274A934213D07B681B687D
:10268000254A93420ED07B681B68244A934209D0A6
:102690007B681B68224A934204D07B681B68214AEE
:1026A000934208D17B681B681A687B681B6822F01C
:1026B00001021A6007E07B681B681A687B681B6868
:1026C00022F001021A602FE0FFF788FD02463B6905
:1026D000D31A052B28D97B6820225A657B680322F0
:1026E00083F83520012346E2100002402800024012
:1026F0004000024058000240700002408800024042
:10270000A0000240B8000240100402402804024029
:102710004004024058040240700402408804024011
:10272000A0040240B80402407B681B681B6803F0E9
:102730000103002BC8D17B681B681B687B617A6929
:10274000834B13407B617B689A687B68DB681A4324
:102750007B681B691A437B685B691A437B689B69CA
:102760001A437B68DB691A437B681B6A13437A69E7
:1027700013437B617B685B6A042B07D17B68DA6A51
:102780007B681B6B13437A6913437B61714B1A6837
:10279000714B1340B3F1005F28D37B685B68282B33
:1027A00003D97B685B682E2B17D97B685B683E2B4F
:1027B00003D97B685B68422B0FD97B685B68462B2B
:1027C00003D97B685B68482B07D97B685B684E2B15
:1027D00005D97B685B68522B01D8012300E00023F8
:1027E000002B03D07B6943F480137B617B681B68FB
:1027F0007A691A607B681B685B697B617B6923F07F
:1028000007037B617B685B6A7A6913437B617B6842
:102810005B6A042B17D17B689B6A7A6913437B61DF
:102820007B68DB6A002B0ED0786802F03FFB034622
:10283000002B08D07B6840225A657B68012283F810
:102840003520012397E17B681B687A695A617868B3
:1028500002F07AFA0346BB607B68DB6D03F01F036E
:102860003F229A40BB689A60CDE07B681B683B4A78
:10287000934222D07B681B68394A93421DD07B6803
:102880001B68384A934218D07B681B68364A9342CB
:1028900013D07B681B68354A93420ED07B681B6857
:1028A000334A934209D07B681B68324A934204D072
:1028B0007B681B68304A934201D1012300E000236A
:1028C000002B00F097807B681B68244A934221D03C
:1028D0007B681B68224A93421CD07B681B68214A94
:1028E000934217D07B681B681F4A934212D07B68C3
:1028F0001B681E4A93420DD07B681B681C4A93429A
:1029000008D07B681B681B4A934203D07B681B6816
:10291000194A93427B68022283F835207B680022A3
:1029200083F834207B681B681B687B617A69134BD2
:1029300013407B617B689B68402B21D07B689B6840
:10294000802B02D14FF480431BE0002319E000BF2D
:102950003F8010FE0010005C0000FFFF085402588A
:102960001C540258305402584454025858540258C7
:102970006C54025880540258945402580F00FEFFC1
:1029800010237A68D268D2081A437B681B69DB0877
:102990001A437B685B69DB081A437B689B69DB0829
:1029A0001A437B68DB69DB081A437B681B6A1B09D7
:1029B00013437A6913437B617B681B687A691A60E9
:1029C0007B681B681A466E4B13446E4AA2FB0323B6
:1029D0001B099A007B68DA65786802F0B5F903464E
:1029E000FB607B68DB6D03F01F0301229A40FB68EC
:1029F0005A6008E07B6840225A657B68032283F8AE
:102A000035200123B7E07B681B685F4A934272D090
:102A10007B681B685D4A93426DD07B681B685C4A8B
:102A2000934268D07B681B685A4A934263D07B68A4
:102A30001B68594A93425ED07B681B68574A934291
:102A400059D07B681B68564A934254D07B681B68F8
:102A5000544A93424FD07B681B68534A93424AD0F2
:102A60007B681B68514A934245D07B681B68504A7B
:102A7000934240D07B681B684E4A93423BD07B68B0
:102A80001B684D4A934236D07B681B684B4A934281
:102A900031D07B681B684A4A93422CD07B681B6804
:102AA000484A934227D07B681B68474A934222D00A
:102AB0007B681B68454A93421DD07B681B68444A6B
:102AC000934218D07B681B68424A934213D07B68BC
:102AD0001B68414A93420ED07B681B683F4A934271
:102AE00009D07B681B683E4A934204D07B681B6810
:102AF0003C4A934201D1012300E00023002B32D055
:102B0000786802F04FFA7B689B68802B02D17B6863
:102B100000225A607B685A687B681B6ED2B21A60CA
:102B20007B685B6E7A68926E5A607B685B68002B8C
:102B300010D07B685B68082B0CD8786802F0CCFA60
:102B40007B68DB6E00221A607B681B6F7A68526FAD
:102B50005A6008E07B680022DA667B6800221A6708
:102B60007B6800225A677B6800225A657B680122D5
:102B700083F83520002318461837BD4680BD00BFB6
:102B8000F8ABFDA7CDCCCCCC100002402800024011
:102B9000400002405800024070000240880002409D
:102BA000A0000240B8000240100402402804024085
:102BB000400402405804024070040240880402406D
:102BC000A0040240B8040240085402581C540258A1
:102BD0003054025844540258585402586C54025805
:102BE000805402589454025880B586B000AFF86003
:102BF000B9607A603B600023FB75FB68002B01D154
:102C0000012326E2FB6893F83430012B01D1022323
:102C10001FE2FB68012283F83420FB6893F835300B
:102C2000DBB2012B40F00A82FB68022283F83520D8
:102C3000FB6800225A65FB681B68684A93424AD0C9
:102C4000FB681B68664A934245D0FB681B68654A6F
:102C5000934240D0FB681B68634A93423BD0FB68B9
:102C60001B68624A934236D0FB681B68604A9342F5
:102C700031D0FB681B685F4A93422CD0FB681B680D
:102C80005D4A934227D0FB681B685C4A934222D07E
:102C9000FB681B685A4A93421DD0FB681B68594A5F
:102CA000934218D0FB681B68574A934213D0FB68C5
:102CB0001B68564A93420ED0FB681B68544A9342E5
:102CC00009D0FB681B68534A934204D0FB681B6819
:102CD000514A934208D1FB681B681A68FB681B685D
:102CE00022F001021A6007E0FB681B681A68FB68A3
:102CF0001B6822F001021A603B687A68B968F868BC
:102D000001F076FEFB681B68344A93424AD0FB68A8
:102D10001B68334A934245D0FB681B68314A934293
:102D200040D0FB681B68304A93423BD0FB681B686D
:102D30002E4A934236D0FB681B682D4A934231D00D
:102D4000FB681B682B4A93422CD0FB681B682A4AFD
:102D5000934227D0FB681B68284A934222D0FB6825
:102D60001B68274A93421DD0FB681B68254A934283
:102D700018D0FB681B68244A934213D0FB681B6879
:102D8000224A93420ED0FB681B68214A934209D025
:102D9000FB681B681F4A934204D0FB681B681E4AED
:102DA000934201D1012300E00023002B36D0FB68C1
:102DB0001B681B6823F01E02FB681B6842F01602AA
:102DC0001A60FB681B6C002B3ED0FB681B681A68FE
:102DD000FB681B6842F008021A6035E010000240F0
:102DE00028000240400002405800024070000240AB
:102DF00088000240A0000240B800024010040240D7
:102E0000280402404004024058040240700402407A
:102E100088040240A0040240B8040240FB681B681A
:102E20001B6823F00E02FB681B6842F00A021A605E
:102E3000FB681B6C002B07D0FB681B681A68FB68DB
:102E40001B6842F004021A60FB681B68834A9342C5
:102E500072D0FB681B68824A93426DD0FB681B6886
:102E6000804A934268D0FB681B687F4A934263D0D4
:102E7000FB681B687D4A93425ED0FB681B687C4AF6
:102E8000934259D0FB681B687A4A934254D0FB683E
:102E90001B68794A93424FD0FB681B68774A93427C
:102EA0004AD0FB681B68764A934245D0FB681B6892
:102EB000744A934240D0FB681B68734A93423BD0EC
:102EC000FB681B68714A934236D0FB681B68704AE6
:102ED000934231D0FB681B686E4A93422CD0FB684A
:102EE0001B686D4A934227D0FB681B686B4A93426C
:102EF00022D0FB681B686A4A93421DD0FB681B689E
:102F0000684A934218D0FB681B68674A934213D003
:102F1000FB681B68654A93420ED0FB681B68644AD5
:102F2000934209D0FB681B68624A934204D0FB6855
:102F30001B68614A934201D1012300E00023002B6A
:102F40001AD0FB681B6E1B6803F48033002B07D07C
:102F5000FB681B6E1A68FB681B6E42F480721A6075
:102F6000FB68DB6E002B07D0FB68DB6E1A68FB6822
:102F7000DB6E42F480721A60FB681B68374A93422A
:102F80004AD0FB681B68364A934245D0FB681B68F1
:102F9000344A934240D0FB681B68334A93423BD08B
:102FA000FB681B68314A934236D0FB681B68304A85
:102FB000934231D0FB681B682E4A93422CD0FB68A9
:102FC0001B682D4A934227D0FB681B682B4A93420B
:102FD00022D0FB681B682A4A93421DD0FB681B68FD
:102FE000284A934218D0FB681B68274A934213D0A3
:102FF000FB681B68254A93420ED0FB681B68244A75
:10300000934209D0FB681B68224A934204D0FB68B4
:103010001B68214A934208D1FB681B681A68FB6849
:103020001B6842F001021A6012E0FB681B681A6814
:10303000FB681B6842F001021A6009E0FB684FF46C
:1030400000625A65FB68002283F834200123FB7577
:10305000FB7D18461837BD4680BD00BF10000240FA
:103060002800024040000240580002407000024028
:1030700088000240A0000240B80002401004024054
:1030800028040240400402405804024070040240F8
:1030900088040240A0040240B804024008540258C8
:1030A0001C54025830540258445402585854025880
:1030B0006C540258805402589454025880B586B01B
:1030C00000AF7860FFF78AF838617B68002B01D188
:1030D0000123DCE27B6893F83530DBB2022B08D0A9
:1030E0007B6880225A657B68002283F834200123A4
:1030F000CDE27B681B68764A93424AD07B681B68A6
:10310000744A934245D07B681B68734A934240D00F
:103110007B681B68714A93423BD07B681B68704A8E
:10312000934236D07B681B686E4A934231D07B68ED
:103130001B686D4A93422CD07B681B686B4A934294
:1031400027D07B681B686A4A934222D07B681B6841
:10315000684A93421DD07B681B68674A934218D027
:103160007B681B68654A934213D07B681B68644A7E
:1031700093420ED07B681B68624A934209D07B68F9
:103180001B68614A934204D07B681B685F4A934284
:1031900001D1012300E00023002B13D07B681B68C2
:1031A0001A687B681B6822F01E021A607B681B6825
:1031B0005A697B681B6822F080025A617B681B6831
:1031C0007B610AE07B681B681A687B681B6822F0D9
:1031D0000E021A607B681B687B617B681B683C4A37
:1031E000934272D07B681B683A4A93426DD07B68E9
:1031F0001B68394A934268D07B681B68374A934200
:1032000063D07B681B68364A93425ED07B681B683C
:10321000344A934259D07B681B68334A934254D056
:103220007B681B68314A93424FD07B681B68304AE9
:1032300093424AD07B681B682E4A934245D07B68F4
:103240001B682D4A934240D07B681B682B4A9342EF
:103250003BD07B681B682A4A934236D07B681B6848
:10326000284A934231D07B681B68274A93422CD06E
:103270007B681B68254A934227D07B681B68244AD9
:10328000934222D07B681B68224A93421DD07B6800
:103290001B68214A934218D07B681B681F4A9342DF
:1032A00013D07B681B681E4A93420ED07B681B6854
:1032B0001C4A934209D07B681B681B4A934204D086
:1032C0007B681B68194A934232D1012331E000BF69
:1032D0001000024028000240400002405800024016
:1032E0007000024088000240A0000240B800024086
:1032F00010040240280402404004024058040240E6
:103300007004024088040240A0040240B804024055
:10331000085402581C54025830540258445402585D
:10332000585402586C54025880540258945402580D
:103330000023002B07D07B681B6E1A687B681B6E0E
:1033400022F480721A607B681B686D4A93424AD0EF
:103350007B681B686B4A934245D07B681B686A4A4E
:10336000934240D07B681B68684A93423BD07B689D
:103370001B68674A934236D07B681B68654A934254
:1033800031D07B681B68644A93422CD07B681B68F1
:10339000624A934227D07B681B68614A934222D0DD
:1033A0007B681B685F4A93421DD07B681B685E4A3E
:1033B000934218D07B681B685C4A934213D07B68A9
:1033C0001B685B4A93420ED07B681B68594A934244
:1033D00009D07B681B68584A934204D07B681B68FD
:1033E000564A934208D17B681B681A687B681B6841
:1033F00022F001021A6007E07B681B681A687B688C
:103400001B6822F001021A6013E0FEF7E7FE024695
:103410003B69D31A052B0CD97B6820225A657B683F
:10342000032283F835207B68002283F834200123AF
:103430002DE17B691B6803F00103002BE5D17B685C
:103440001B682F4A93424AD07B681B682D4A9342DF
:1034500045D07B681B682C4A934240D07B681B6830
:103460002A4A93423BD07B681B68294A934236D054
:103470007B681B68274A934231D07B681B68264AC9
:1034800093422CD07B681B68244A934227D07B68E8
:103490001B68234A934222D07B681B68214A9342CF
:1034A0001DD07B681B68204A934218D07B681B683C
:1034B0001E4A934213D07B681B681D4A93420ED06C
:1034C0007B681B681B4A934209D07B681B681A4AB9
:1034D000934204D07B681B68184A934201D10123B0
:1034E00000E00023002B2BD07B689B6DBB607B68CA
:1034F000DB6D03F01F033F229A40BB689A602AE00D
:1035000010000240280002404000024058000240E3
:103510007000024088000240A0000240B800024053
:1035200010040240280402404004024058040240B3
:103530007004024088040240A0040240B804024023
:103540007B689B6DFB607B68DB6D03F01F030122D2
:103550009A40FB685A607B681B684F4A934272D05E
:103560007B681B684D4A93426DD07B681B684C4A50
:10357000934268D07B681B684A4A934263D07B6859
:103580001B68494A93425ED07B681B68474A934256
:1035900059D07B681B68464A934254D07B681B68AD
:1035A000444A93424FD07B681B68434A93424AD0B7
:1035B0007B681B68414A934245D07B681B68404A40
:1035C000934240D07B681B683E4A93423BD07B6865
:1035D0001B683D4A934236D07B681B683B4A934246
:1035E00031D07B681B683A4A93422CD07B681B68B9
:1035F000384A934227D07B681B68374A934222D0CF
:103600007B681B68354A93421DD07B681B68344A2F
:10361000934218D07B681B68324A934213D07B6870
:103620001B68314A93420ED07B681B682F4A934235
:1036300009D07B681B682E4A934204D07B681B68C4
:103640002C4A934201D1012300E00023002B15D026
:103650007B685B6E7A68926E5A607B68DB6E002BCB
:103660000CD07B68DB6E1A687B68DB6E22F480729C
:103670001A607B681B6F7A68526F5A607B68012200
:1036800083F835207B68002283F834200023184615
:103690001837BD4680BD00BF100002402800024020
:1036A0004000024058000240700002408800024082
:1036B000A0000240B800024010040240280402406A
:1036C0004004024058040240700402408804024052
:1036D000A0040240B8040240085402581C54025886
:1036E0003054025844540258585402586C540258EA
:1036F000805402589454025880B584B000AF78606A
:103700007B68002B01D1012337E27B6893F83530C9
:10371000DBB2022B04D07B6880225A6501232CE2A5
:103720007B681B685C4A93424AD07B681B685B4A93
:10373000934245D07B681B68594A934240D07B68CE
:103740001B68584A93423BD07B681B68564A934299
:1037500036D07B681B68554A934231D07B681B6822
:10376000534A93422CD07B681B68524A934227D01D
:103770007B681B68504A934222D07B681B684F4A83
:1037800093421DD07B681B684D4A934218D07B68DA
:103790001B684C4A934213D07B681B684A4A934289
:1037A0000ED07B681B68494A934209D07B681B682E
:1037B000474A934204D07B681B68464A934201D132
:1037C000012300E00023002B00F086807B680422A8
:1037D00083F835207B681B682F4A93424AD07B6868
:1037E0001B682E4A934245D07B681B682C4A934243
:1037F00040D07B681B682B4A93423BD07B681B6898
:10380000294A934236D07B681B68284A934231D0BC
:103810007B681B68264A93422CD07B681B68254A2C
:10382000934227D07B681B68234A934222D07B684F
:103830001B68224A93421DD07B681B68204A934232
:1038400018D07B681B681F4A934213D07B681B68A3
:103850001D4A93420ED07B681B681C4A934209D0D4
:103860007B681B681A4A934204D07B681B68194A1C
:10387000934208D17B681B681A687B681B6822F03A
:1038800001021A6078E17B681B681A687B681B6814
:1038900022F001021A606FE110000240280002408D
:1038A0004000024058000240700002408800024080
:1038B000A0000240B8000240100402402804024068
:1038C0004004024058040240700402408804024050
:1038D000A0040240B80402407B681B681A687B6839
:1038E0001B6822F00E021A607B681B686C4A9342C8
:1038F0004AD07B681B686B4A934245D07B681B6843
:10390000694A934240D07B681B68684A93423BD027
:103910007B681B68664A934236D07B681B68654AA1
:10392000934231D07B681B68634A93422CD07B68FA
:103930001B68624A934227D07B681B68604A9342A7
:1039400022D07B681B685F4A93421DD07B681B684E
:103950005D4A934218D07B681B685C4A934213D03F
:103960007B681B685A4A93420ED07B681B68594A91
:10397000934209D07B681B68574A934204D07B6806
:103980001B68564A934208D17B681B681A687B689B
:103990001B6822F001021A6007E07B681B681A6846
:1039A0007B681B6822F001021A607B681B683C4A36
:1039B000934272D07B681B683A4A93426DD07B6811
:1039C0001B68394A934268D07B681B68374A934228
:1039D00063D07B681B68364A93425ED07B681B6865
:1039E000344A934259D07B681B68334A934254D07F
:1039F0007B681B68314A93424FD07B681B68304A12
:103A000093424AD07B681B682E4A934245D07B681C
:103A10001B682D4A934240D07B681B682B4A934217
:103A20003BD07B681B682A4A934236D07B681B6870
:103A3000284A934231D07B681B68274A93422CD096
:103A40007B681B68254A934227D07B681B68244A01
:103A5000934222D07B681B68224A93421DD07B6828
:103A60001B68214A934218D07B681B681F4A934207
:103A700013D07B681B681E4A93420ED07B681B687C
:103A80001C4A934209D07B681B681B4A934204D0AE
:103A90007B681B68194A934232D1012331E000BF91
:103AA000100002402800024040000240580002403E
:103AB0007000024088000240A0000240B8000240AE
:103AC000100402402804024040040240580402400E
:103AD0007004024088040240A0040240B80402407E
:103AE000085402581C540258305402584454025886
:103AF000585402586C540258805402589454025836
:103B00000023002B28D07B681B6E1A687B681B6E15
:103B100022F480721A607B689B6DFB607B68DB6DB2
:103B200003F01F0301229A40FB685A607B685B6EBA
:103B30007A68926E5A607B68DB6E002B0CD07B68D3
:103B4000DB6E1A687B68DB6E22F480721A607B6819
:103B50001B6F7A68526F5A607B68012283F83520A8
:103B60007B68002283F834207B681B6D002B03D018
:103B70007B681B6D78689847002318461037BD4650
:103B800080BD00BF80B58AB000AF78600023FB60C5
:103B9000674B1B68674AA2FB03239B0A7B627B6817
:103BA0009B6D3B627B689B6DFB613B6A1B68BB61E5
:103BB000FB691B687B617B681B685F4A93424AD044
:103BC0007B681B685D4A934245D07B681B685C4AF2
:103BD000934240D07B681B685A4A93423BD07B6833
:103BE0001B68594A934236D07B681B68574A9342F8
:103BF00031D07B681B68564A93422CD07B681B6887
:103C0000544A934227D07B681B68534A934222D080
:103C10007B681B68514A93421DD07B681B68504AE1
:103C2000934218D07B681B684E4A934213D07B683E
:103C30001B684D4A93420ED07B681B684B4A9342E7
:103C400009D07B681B684A4A934204D07B681B6892
:103C5000484A934201D1012300E00023002B00F0E9
:103C60002B847B68DB6D03F01F0308229A40BB693D
:103C70001340002B00F0A2807B681B682E4A934201
:103C80004AD07B681B682D4A934245D07B681B68ED
:103C90002B4A934240D07B681B682A4A93423BD010
:103CA0007B681B68284A934236D07B681B68274A8A
:103CB000934231D07B681B68254A93422CD07B68A5
:103CC0001B68244A934227D07B681B68224A934290
:103CD00022D07B681B68214A93421DD07B681B68F9
:103CE0001F4A934218D07B681B681E4A934213D028
:103CF0007B681B681C4A93420ED07B681B681B4A7A
:103D0000934209D07B681B68194A934204D07B68B0
:103D10001B68184A93422FD17B681B681B6803F00D
:103D20000403002B14BF01230023DBB22EE000BFED
:103D300000000024B5814E1B100002402800024004
:103D400040000240580002407000024088000240DB
:103D5000A0000240B80002401004024028040240C3
:103D600040040240580402407004024088040240AB
:103D7000A0040240B80402407B681B681B6803F083
:103D80000803002B14BF01230023DBB2002B15D046
:103D90007B681B681A687B681B6822F004021A6043
:103DA0007B68DB6D03F01F0308229A403B6A9A6030
:103DB0007B685B6D43F001027B685A657B68DB6D55
:103DC00003F01F03BA6922FA03F303F00103002B87
:103DD0006ED07B681B68694A93424AD07B681B6837
:103DE000674A934245D07B681B68664A934240D03D
:103DF0007B681B68644A93423BD07B681B68634ABC
:103E0000934236D07B681B68614A934231D07B680D
:103E10001B68604A93422CD07B681B685E4A9342C1
:103E200027D07B681B685D4A934222D07B681B6861
:103E30005B4A93421DD07B681B685A4A934218D054
:103E40007B681B68584A934213D07B681B68574AAB
:103E500093420ED07B681B68554A934209D07B6819
:103E60001B68544A934204D07B681B68524A9342B1
:103E70000AD17B681B685B6903F08003002B14BFC9
:103E800001230023DBB203E07B681B681B6800236F
:103E9000002B0DD07B68DB6D03F01F0301229A40DD
:103EA0003B6A9A607B685B6D43F002027B685A65EF
:103EB0007B68DB6D03F01F0304229A40BB6913404B
:103EC000002B00F08F807B681B682C4A93424AD0FD
:103ED0007B681B682A4A934245D07B681B68294A45
:103EE000934240D07B681B68274A93423BD07B6853
:103EF0001B68264A934236D07B681B68244A93424B
:103F000031D07B681B68234A93422CD07B681B68A6
:103F1000214A934227D07B681B68204A934222D0D3
:103F20007B681B681E4A93421DD07B681B681D4A34
:103F3000934218D07B681B681B4A934213D07B685E
:103F40001B681A4A93420ED07B681B68184A93423A
:103F500009D07B681B68174A934204D07B681B68B2
:103F6000154A93422AD17B681B681B6803F0020341
:103F7000002B14BF01230023DBB223E0100002401A
:103F800028000240400002405800024070000240F9
:103F900088000240A0000240B80002401004024025
:103FA00028040240400402405804024070040240C9
:103FB00088040240A0040240B80402407B681B68E9
:103FC0001B680023002B0DD07B68DB6D03F01F0303
:103FD00004229A403B6A9A607B685B6D43F004025E
:103FE0007B685A657B68DB6D03F01F0310229A40E3
:103FF000BB691340002B00F0A6807B681B68854AD4
:1040000093424AD07B681B68834A934245D07B68C1
:104010001B68824A934240D07B681B68804A934267
:104020003BD07B681B687F4A934236D07B681B6815
:104030007D4A934231D07B681B687C4A93422CD0E6
:104040007B681B687A4A934227D07B681B68794A51
:10405000934222D07B681B68774A93421DD07B68CD
:104060001B68764A934218D07B681B68744A934257
:1040700013D07B681B68734A93420ED07B681B6821
:10408000714A934209D07B681B68704A934204D0FE
:104090007B681B686E4A93420AD17B681B681B6869
:1040A00003F00803002B14BF01230023DBB209E057
:1040B0007B681B681B6803F00403002B14BF0123FB
:1040C0000023DBB2002B3ED07B68DB6D03F01F03C7
:1040D00010229A403B6A9A607B681B681B6803F455
:1040E0008023002B18D07B681B681B6803F4002317
:1040F000002B08D17B681B6C002B24D07B681B6CC9
:10410000786898471FE07B689B6C002B1BD07B680E
:104110009B6C7868984716E07B681B681B6803F403
:104120008073002B07D17B681B681A687B681B684B
:1041300022F008021A607B681B6C002B03D07B689E
:104140001B6C786898477B68DB6D03F01F032022A7
:104150009A40BB691340002B00F010817B681B68FC
:104160002C4A93424AD07B681B682B4A934245D025
:104170007B681B68294A934240D07B681B68284AA9
:1041800093423BD07B681B68264A934236D07B68BB
:104190001B68254A934231D07B681B68234A9342AF
:1041A0002CD07B681B68224A934227D07B681B680F
:1041B000204A934222D07B681B681F4A93421DD03D
:1041C0007B681B681D4A934218D07B681B681C4A99
:1041D000934213D07B681B681A4A93420ED07B68C7
:1041E0001B68194A934209D07B681B68174A93429F
:1041F00004D07B681B68164A93422BD17B681B68EE
:104200001B6803F01003002B14BF01230023DBB253
:104210002AE000BF10000240280002404000024097
:10422000580002407000024088000240A000024096
:10423000B80002401004024028040240400402403A
:10424000580402407004024088040240A004024066
:10425000B80402407B681B681B6803F00203002B54
:1042600014BF01230023DBB2002B00F087807B68A2
:10427000DB6D03F01F0320229A403B6A9A607B6843
:1042800093F83530DBB2042B39D17B681B681A6890
:104290007B681B6822F016021A607B681B685A69EB
:1042A0007B681B6822F080025A617B681B6C002BC4
:1042B00003D17B689B6C002B07D07B681B681A6856
:1042C0007B681B6822F008021A607B68DB6D03F0D4
:1042D0001F033F229A403B6A9A607B68012283F861
:1042E00035207B68002283F834207B681B6D002B0F
:1042F00000F04A837B681B6D7868984744E37B68CD
:104300001B681B6803F48023002B18D07B681B6894
:104310001B6803F40023002B08D17B685B6C002B27
:104320002CD07B685B6C7868984727E07B68DB6BF8
:10433000002B23D07B68DB6B786898471EE07B6896
:104340001B681B6803F48073002B0FD17B681B680C
:104350001A687B681B6822F010021A607B680122D1
:1043600083F835207B68002283F834207B68DB6B80
:10437000002B03D07B68DB6B786898477B685B6DAC
:10438000002B00F006837B685B6D03F00103002BBC
:1043900000F088807B68042283F835207B681B68E6
:1043A0007A4A93424AD07B681B68794A934245D047
:1043B0007B681B68774A934240D07B681B68764ACB
:1043C00093423BD07B681B68744A934236D07B682B
:1043D0001B68734A934231D07B681B68714A9342D1
:1043E0002CD07B681B68704A934227D07B681B687F
:1043F0006E4A934222D07B681B686D4A93421DD05F
:104400007B681B686B4A934218D07B681B686A4ABA
:10441000934213D07B681B68684A93420ED07B6836
:104420001B68674A934209D07B681B68654A9342C0
:1044300004D07B681B68644A934208D17B681B6880
:104440001A687B681B6822F001021A6007E07B682B
:104450001B681A687B681B6822F001021A60FB68FF
:104460000133FB607A6A9A4207D37B681B681B683A
:1044700003F00103002BF2D100E000BF7B681B6852
:104480001B6803F00103002B04D07B68032283F830
:10449000352003E07B68012283F835207B68002209
:1044A00083F834207B68DB6C002B00F072827B6821
:1044B000DB6C786898476CE27B681B68434A9342E0
:1044C00022D07B681B68424A93421DD07B681B68E0
:1044D000404A934218D07B681B683F4A934213D0EE
:1044E0007B681B683D4A93420ED07B681B683C4A40
:1044F000934209D07B681B683A4A934204D07B6898
:104500001B68394A934201D1012300E00023002BAC
:1045100000F03F827B681B681B683B617B68DB6D3A
:1045200003F01F0304229A407B691340002B00F024
:10453000CD803B6903F00403002B00F0C7807B684B
:10454000DB6D03F01F0304229A40FB695A603B694C
:1045500003F40043002B49D03B6903F48033002B64
:1045600009D17B689B6C002B00F010827B689B6CF0
:10457000786898470AE27B681B6C002B00F0068283
:104580007B681B6C7868984700E200BF100002400F
:1045900028000240400002405800024070000240E3
:1045A00088000240A0000240B8000240100402400F
:1045B00028040240400402405804024070040240B3
:1045C00088040240A0040240B80402400854025883
:1045D0001C5402583054025844540258585402583B
:1045E0006C54025880540258945402583B6903F0AA
:1045F0002003002B60D17B681B687F4A93424AD01E
:104600007B681B687D4A934245D07B681B687C4A67
:10461000934240D07B681B687A4A93423BD07B68C8
:104620001B68794A934236D07B681B68774A93426D
:1046300031D07B681B68764A93422CD07B681B681C
:10464000744A934227D07B681B68734A934222D0F6
:104650007B681B68714A93421DD07B681B68704A57
:10466000934218D07B681B686E4A934213D07B68D4
:104670001B686D4A93420ED07B681B686B4A93425D
:1046800009D07B681B686A4A934204D07B681B6828
:10469000684A934208D17B681B681A687B681B686C
:1046A00022F008021A6007E07B681B681A687B68C2
:1046B0001B6822F004021A607B681B6C002B00F060
:1046C00065817B681B6C786898475FE17B68DB6D70
:1046D00003F01F0302229A407B691340002B00F075
:1046E000C5803B6903F00203002B00F0BF807B68AC
:1046F000DB6D03F01F0302229A40FB695A603B699D
:1047000003F40043002B18D03B6903F48033002BE3
:1047100009D17B685B6C002B00F03A817B685B6C95
:104720007868984734E17B68DB6B002B00F03081C0
:104730007B68DB6B786898472AE13B6903F02003CC
:10474000002B40F089807B681B682B4A93424AD03B
:104750007B681B68294A934245D07B681B68284ABE
:10476000934240D07B681B68264A93423BD07B68CB
:104770001B68254A934236D07B681B68234A9342C4
:1047800031D07B681B68224A93422CD07B681B681F
:10479000204A934227D07B681B681F4A934222D04D
:1047A0007B681B681D4A93421DD07B681B681C4AAE
:1047B000934218D07B681B681A4A934213D07B68D7
:1047C0001B68194A93420ED07B681B68174A9342B4
:1047D00009D07B681B68164A934204D07B681B682B
:1047E000144A934228D17B681B681A687B681B684F
:1047F00022F014021A6027E0100002402800024054
:104800004000024058000240700002408800024010
:10481000A0000240B80002401004024028040240F8
:1048200040040240580402407004024088040240E0
:10483000A0040240B80402407B681B681A687B68C9
:104840001B6822F00A021A607B68012283F8352077
:104850007B68002283F834207B68DB6B002B00F040
:1048600097807B68DB6B7868984791E07B68DB6DAD
:1048700003F01F0308229A407B691340002B00F0CD
:1048800088803B6903F00803002B00F082807B687E
:104890001B68414A93424AD07B681B683F4A934257
:1048A00045D07B681B683E4A934240D07B681B68BA
:1048B0003C4A93423BD07B681B683B4A934236D0CC
:1048C0007B681B68394A934231D07B681B68384A41
:1048D00093422CD07B681B68364A934227D07B6872
:1048E0001B68354A934222D07B681B68334A934247
:1048F0001DD07B681B68324A934218D07B681B68C6
:10490000304A934213D07B681B682F4A93420ED0E3
:104910007B681B682D4A934209D07B681B682C4A30
:10492000934204D07B681B682A4A934208D17B6873
:104930001B681A687B681B6822F01C021A6007E07B
:104940007B681B681A687B681B6822F00E021A607D
:104950007B68DB6D03F01F0301229A40FB695A60FC
:104960007B6801225A657B68012283F835207B68C9
:10497000002283F834207B68DB6C002B09D07B6835
:10498000DB6C7868984704E000BF02E000BF00E0FD
:1049900000BF2837BD4680BD1000024028000240FD
:1049A000400002405800024070000240880002406F
:1049B000A0000240B8000240100402402804024057
:1049C000400402405804024070040240880402403F
:1049D000A0040240B804024080B483B000AF786005
:1049E0007B685B6D18460C37BD465DF8047B7047ED
:1049F00080B487B000AFF860B9607A603B60FB6854
:104A00009B6D7B61FB689B6D3B61FB681B687F4A0C
:104A1000934272D0FB681B687D4A93426DD0FB685D
:104A20001B687C4A934268D0FB681B687A4A9342B1
:104A300063D0FB681B68794A93425ED0FB681B68B1
:104A4000774A934259D0FB681B68764A934254D008
:104A5000FB681B68744A93424FD0FB681B68734A1B
:104A600093424AD0FB681B68714A934245D0FB6869
:104A70001B68704A934240D0FB681B686E4A9342A1
:104A80003BD0FB681B686D4A934236D0FB681B68BD
:104A90006B4A934231D0FB681B686A4A93422CD020
:104AA000FB681B68684A934227D0FB681B68674A0B
:104AB000934222D0FB681B68654A93421DD0FB6875
:104AC0001B68644A934218D0FB681B68624A934291
:104AD00013D0FB681B68614A93420ED0FB681B68C9
:104AE0005F4A934209D0FB681B685E4A934204D038
:104AF000FB681B685C4A934201D1012300E000235C
:104B0000002B0DD0FB685B6EFA68926E5A60FB68F2
:104B1000DB6E002B04D0FB681B6FFA68526F5A6083
:104B2000FB681B68394A93424AD0FB681B68384AC5
:104B3000934245D0FB681B68364A934240D0FB68DD
:104B40001B68354A93423BD0FB681B68334A93424B
:104B500036D0FB681B68324A934231D0FB681B6831
:104B6000304A93422CD0FB681B682F4A934227D0CF
:104B7000FB681B682D4A934222D0FB681B682C4AB5
:104B800093421DD0FB681B682A4A934218D0FB68E9
:104B90001B68294A934213D0FB681B68274A93423B
:104BA0000ED0FB681B68264A934209D0FB681B683D
:104BB000244A934204D0FB681B68234A934201D1E4
:104BC000012300E00023002B59D0FB68DB6D03F0CC
:104BD0001F033F229A407B699A60FB681B681A6832
:104BE000FB681B6822F480221A60FB681B683A6825
:104BF0005A60FB689B68402B38D1FB681B687A6859
:104C00009A60FB681B68BA68DA6086E010000240B0
:104C1000280002404000024058000240700002405C
:104C200088000240A0000240B80002401004024088
:104C3000280402404004024058040240700402402C
:104C400088040240A0040240B804024008540258FC
:104C50001C540258305402584454025858540258B4
:104C60006C5402588054025894540258FB681B68D4
:104C7000BA689A60FB681B687A68DA604DE0FB6886
:104C80001B68294A934222D0FB681B68274A93423B
:104C90001DD0FB681B68264A934218D0FB681B682E
:104CA000244A934213D0FB681B68234A93420ED0D8
:104CB000FB681B68214A934209D0FB681B68204AA5
:104CC000934204D0FB681B681E4A934201D1012322
:104CD00000E00023002B20D0FB68DB6D03F01F03F6
:104CE00001229A403B695A60FB681B683A685A6027
:104CF000FB689B68402B08D1FB681B687A689A6048
:104D0000FB681B68BA68DA6007E0FB681B68BA6872
:104D10009A60FB681B687A68DA6000BF1C37BD4682
:104D20005DF8047B704700BF085402581C540258B9
:104D30003054025844540258585402586C54025883
:104D4000805402589454025880B485B000AF786003
:104D50007B681B68424A93424AD07B681B68414A81
:104D6000934245D07B681B683F4A934240D07B68A2
:104D70001B683E4A93423BD07B681B683C4A934287
:104D800036D07B681B683B4A934231D07B681B68F6
:104D9000394A93422CD07B681B68384A934227D00B
:104DA0007B681B68364A934222D07B681B68354A71
:104DB00093421DD07B681B68334A934218D07B68AE
:104DC0001B68324A934213D07B681B68304A934277
:104DD0000ED07B681B682F4A934209D07B681B6802
:104DE0002D4A934204D07B681B682C4A934201D120
:104DF000012300E00023002B24D07B681B68DBB27A
:104E0000103B274AA2FB03231B09FB60FB6803F04E
:104E10000703244AD35C1A467B68DA65FB68032BD8
:104E200008D97B681B681A461F4B13401A1D7B6804
:104E30009A650DE07B681B681A461B4B13407A6825
:104E4000936505E07B681B6823F0FF027B689A6529
:104E50007B689B6D18461437BD465DF8047B704730
:104E6000100002402800024040000240580002406A
:104E70007000024088000240A0000240B8000240DA
:104E8000100402402804024040040240580402403A
:104E90007004024088040240A0040240B8040240AA
:104EA000ABAAAAAAF8BA010800FCFFFF80B485B03B
:104EB00000AF78600023FB737B689B69002B20D1D7
:104EC0007B689B6A032B58D801A252F823F000BFDD
:104ED000E14E0008F34E0008E14E00087B4F000849
:104EE0007B68DB6A03F08073002B48D00123FB73DF
:104EF00045E07B68DB6AB3F1C07F42D10123FB73DD
:104F00003FE07B689B69B3F5005F23D17B689B6AB8
:104F1000032B38D801A252F823F000BF2D4F000810
:104F2000334F00082D4F0008454F00080123FB7345
:104F300030E07B68DB6A03F08073002B25D001230F
:104F4000FB7322E07B68DB6AB3F1C07F1FD10123D2
:104F5000FB731CE07B689B6A022B02D9032B03D0F6
:104F600018E00123FB7315E07B68DB6A03F08073B4
:104F7000002B0ED00123FB730BE000BF0AE000BF43
:104F800008E000BF06E000BF04E000BF02E000BF91
:104F900000E000BFFB7B18461437BD465DF8047B7C
:104FA000704700BF80B485B000AF78607B681B6835
:104FB000BB607B681B68384A934222D07B681B68C1
:104FC000364A93421DD07B681B68354A934218D0FD
:104FD0007B681B68334A934213D07B681B68324A54
:104FE00093420ED07B681B68304A934209D07B689D
:104FF0001B682F4A934204D07B681B682D4A93425A
:1050000001D1012300E00023002B1AD07B681B682C
:10501000DBB2083B284AA2FB03231B09FB60FA68AA
:10502000264B13449B001A467B681A667B68244A09
:105030005A66FB6803F01F0301229A407B689A6658
:1050400024E07B681B68DBB2103B1E4AA2FB0323F3
:105050001B09FB60BB681C4A934206D8BB681B4A0D
:10506000934202D9FB680833FB60FA68184B13447B
:105070009B001A467B681A667B68164A5A66FB686C
:1050800003F01F0301229A407B689A6600BF143721
:10509000BD465DF8047B7047085402581C54025802
:1050A0003054025844540258585402586C54025810
:1050B0008054025894540258CDCCCCCC00960016A3
:1050C00080580258ABAAAAAAB80402400F040240B2
:1050D000008200108008024080B485B000AF786084
:1050E0007B685B68DBB2FB60FB68002B4AD0FB6827
:1050F000082B47D87B681B68254A934222D07B68DF
:105100001B68244A93421DD07B681B68224A934245
:1051100018D07B681B68214A934213D07B681B68B8
:105120001F4A93420ED07B681B681E4A934209D0E7
:105130007B681B681C4A934204D07B681B681B4A2F
:10514000934201D1012300E00023002B0AD0FA682A
:10515000174B13449B001A467B68DA667B68154A36
:105160001A6709E0FA68144B13449B001A467B68DF
:10517000DA667B68114A1A67FB68013B01229A4094
:105180007B685A6700BF1437BD465DF8047B7047E3
:10519000085402581C5402583054025844540258BF
:1051A000585402586C54025880540258945402586F
:1051B0003F960016405902583F82001040090240B5
:1051C00080B489B000AF786039600023FB61894BFF
:1051D0007B6194E13B681A680121FB6901FA03F3E2
:1051E00013403B613B69002B00F086813B685B68A4
:1051F00003F00303012B05D03B685B6803F0030356
:10520000022B30D17B689B68BB61FB695B0003228A
:1052100002FA03F3DB43BA691340BB613B68DA6807
:10522000FB695B0002FA03F3BA691343BB617B6855
:10523000BA699A607B685B68BB610122FB6902FA0C
:1052400003F3DB43BA691340BB613B685B681B092E
:1052500003F00102FB6902FA03F3BA691343BB616D
:105260007B68BA695A603B685B6803F00303032BF1
:1052700017D07B68DB68BB61FB695B00032202FA25
:1052800003F3DB43BA691340BB613B689A68FB696F
:105290005B0002FA03F3BA691343BB617B68BA6926
:1052A000DA603B685B6803F00303022B23D1FB69E0
:1052B000DA087B68083253F82230BB61FB6903F0DF
:1052C00007039B000F2202FA03F3DB43BA69134082
:1052D000BB613B681A69FB6903F007039B0002FA94
:1052E00003F3BA691343BB61FB69DA087B680832D0
:1052F000B96943F822107B681B68BB61FB695B00DE
:10530000032202FA03F3DB43BA691340BB613B6833
:105310005B6803F00302FB695B0002FA03F3BA69FE
:105320001343BB617B68BA691A603B685B6803F42E
:105330004033002B00F0E0802F4BD3F8F4302E4A9E
:1053400043F00203C2F8F4302B4BD3F8F43003F0EF
:105350000203FB60FB68294AFB699B08023352F891
:105360002330BB61FB6903F003039B000F2202FAA9
:1053700003F3DB43BA691340BB617B68204A934265
:1053800052D07B681F4A934231D07B681E4A9342B9
:105390002BD07B681D4A934225D07B681C4A9342E0
:1053A0001FD07B681B4A934219D07B681A4A9342EC
:1053B00013D07B68194A93420DD07B68184A9342F8
:1053C00007D07B68174A934201D109232DE00A23B5
:1053D0002BE0082329E0072327E0062325E0052307
:1053E00023E0042321E003231FE002231DE0012327
:1053F0001BE000BF80000058004402580004005821
:10540000000002580004025800080258000C02581C
:10541000001002580014025800180258001C0258CC
:1054200000200258002402580023FA6902F0030207
:1054300092009340BA691343BB613849FB699B08EA
:105440000233BA6941F823204FF0B0431B68BB61B7
:105450003B69DB43BA691340BB613B685B6803F49B
:105460008013002B03D0BA693B691343BB614FF033
:10547000B042BB6913604FF0B0435B68BB613B69EE
:10548000DB43BA691340BB613B685B6803F40013FC
:10549000002B03D0BA693B691343BB614FF0B042A4
:1054A000BB6953607B695B68BB613B69DB43BA697D
:1054B0001340BB613B685B6803F40033002B03D0EF
:1054C000BA693B691343BB617B69BA695A607B69FE
:1054D0001B68BB613B69DB43BA691340BB613B6836
:1054E0005B6803F48033002B03D0BA693B69134334
:1054F000BB617B69BA691A60FB690133FB613B6878
:105500001A68FB6922FA03F3002B7FF463AE00BF35
:1055100000BF2437BD465DF8047B70470004005887
:1055200080B483B000AF78600B467B8013467B70FD
:105530007B78002B03D07A887B689A6103E07B88B4
:105540001A047B689A6100BF0C37BD465DF8047B86
:10555000704780B485B000AF78600B467B807B6875
:105560005B69FB607A88FB6813401A04FB68D943C7
:105570007B880B401A437B689A6100BF1437BD4695
:105580005DF8047B704780B586B002AF78607B68B9
:10559000002B01D10123FEE07B6893F89534DBB248
:1055A000002B06D17B68002283F89424786811F0E0
:1055B000F3F87B68032283F895247B681B68184600
:1055C00009F0B5F97B6818687B681A7C8DF80020B3
:1055D00004330ECB09F086F80346002B05D07B6818
:1055E000022283F895240123D5E07B681B68002103
:1055F000184609F0ADF90346002B05D07B6802225E
:1056000083F895240123C6E00023FB734AE0FA7B6C
:1056100079681346DB0013449B000B4415330122C9
:105620001A70FA7B79681346DB0013449B000B4425
:105630001433FA7B1A70FA7BFB7B98B279681346B5
:10564000DB0013449B000B442E3302461A80FA7B86
:1056500079681346DB0013449B000B441833002287
:105660001A70FA7B79681346DB0013449B000B44E5
:105670001C3300221A60FA7B79681346DB0013445E
:105680009B000B44203300221A60FA7B7968134692
:10569000DB0013449B000B44243300221A60FB7B85
:1056A0000133FB737B681B79FA7B9A42AFD30023EB
:1056B000FB7344E0FA7B79681346DB0013449B00DC
:1056C0000B4403F2552300221A70FA7B79681346C3
:1056D000DB0013449B000B4403F51573FA7B1A702F
:1056E000FA7B79681346DB0013449B000B4403F5F7
:1056F000167300221A70FA7B79681346DB00134494
:105700009B000B4403F5177300221A60FA7B79683B
:105710001346DB0013449B000B4403F5187300226F
:105720001A60FA7B79681346DB0013449B000B4434
:1057300003F5197300221A60FB7B0133FB737B684E
:105740001B79FA7B9A42B5D37B6818687B681A7C10
:105750008DF8002004330ECB09F046F90346002BE8
:1057600005D07B68022283F89524012313E07B682F
:1057700000225A747B68012283F895247B681B7B86
:10578000012B02D1786801F06FF97B681B6818461D
:105790000AF089F9002318461037BD4680BD80B550
:1057A00084B000AF78607B681B68FB607B6893F80F
:1057B0009434012B01D1022322E07B68012283F87B
:1057C0009424FB68DB6803F04003002B09D07B685E
:1057D0005B7B012B05D1FB689B6B43F48032FB683C
:1057E0009A637B681B68184609F090F87B681B6811
:1057F00018460AF037F97B68002283F894240023C6
:1058000018461037BD4680BD90B58DB000AF7860AA
:105810007B681B683B623B6AFB617B681B681846C0
:105820000AF0F5F90346002B40F0B9847B681B6849
:1058300018460AF059F90346002B00F0AF84FB69C3
:1058400003F500639B681B0AC3F30D027B68C3F872
:10585000D4247B681B6818460AF046F9034603F017
:105860000203022B07D17B681B685A697B681B689F
:1058700002F002025A617B681B6818460AF034F98C
:10588000034603F01003102B61D17B681B689A69F3
:105890007B681B6822F010029A613B6A1B6ABB613D
:1058A000BB6903F00F021346DB0013449B0003F5B2
:1058B00014737A68134404337B61BB6903F4F013F7
:1058C000B3F5802F24D1BA6947F6F0731340002B4B
:1058D00035D07B69D968BB691B099BB2C3F30A0346
:1058E0009BB21A46386A09F06BFF7B69DA68BB69BC
:1058F0001B09C3F30A031A447B69DA607B695A699E
:10590000BB691B09C3F30A031A447B695A6116E099
:10591000BB6903F4F013B3F5402F10D17B6803F299
:105920009C4308221946386A09F04AFF7B695A6984
:10593000BB691B09C3F30A031A447B695A617B687C
:105940001B689A697B681B6842F010029A617B6849
:105950001B6818460AF0C8F8034603F40023B3F5A1
:10596000002F40F0A78000237B627B681B681846ED
:105970000AF0CDF8B86299E0BB6A03F00103002B8E
:1059800000F08E807B681B687A6AD2B21146184696
:105990000AF0F1F838613B6903F00103002B0CD0E9
:1059A0007B6A5A01FB69134403F530631A460123ED
:1059B0009360796A786800F0D1FE3B6903F00803D0
:1059C000002B0CD07B6A5A01FB69134403F530634A
:1059D0001A4608239360796A786800F0A7FF3B694C
:1059E00003F01003002B08D07B6A5A01FB691344B3
:1059F00003F530631A46102393603B6903F00203FA
:105A0000002B30D03B6A5B6903F08003802B09D107
:105A1000FB6903F500635B68FA6902F5006243F411
:105A2000806353607A6A1346DB0013449B0003F5DE
:105A300014737A68134404337B617B69DB78012B30
:105A400008D17B690022DA707B6ADBB2194678687C
:105A500010F0C8FF7B6A5A01FB69134403F53063F9
:105A60001A46022393603B6903F02003002B08D001
:105A70007B6A5A01FB69134403F530631A462023FD
:105A800093603B6903F40053002B09D07B6A5A01F1
:105A9000FB69134403F530631A464FF400539360D7
:105AA0007B6A01337B62BB6A5B08BB62BB6A002B0B
:105AB0007FF462AF7B681B6818460AF015F803464E
:105AC00003F48023B3F5802F40F0DB807B681B68F4
:105AD00018460AF036F8B86200237B62CDE0BB6A54
